:1000000000000420B5020000DD020000DF02000055
:10001000E1020000E3020000E50200000000000031
:10002000000000000000000000000000E7020000E7
:10003000E902000000000000EB020000ED020000F9
:10004000EF020000EF020000FD180000EF020000C8
:10005000EF020000EF020000EF020000EF020000DC
:10006000EF020000EF020000EF020000EF020000CC
:10007000EF020000EF020000EF020000EF020000BC
:10008000EF020000EF020000EF020000EF020000AC
:10009000EF020000EF020000EF020000EF0200009C
:1000A000EF020000EF020000EF020000EF0200008C
:1000B000EF020000EF02000000000000000000005E
:1000C000EF020000EF020000EF020000EF0200006C
:1000D000EF020000EF020000EF020000EF0200005C
:1000E000EF0200006D1D0000EF02000000000000A4
:1000F00000000000EF02000000000000EF0200001E
:1001000000000000000000000000000000000000EF
:1001100000000000000000000000000000000000DF
:1001200000000000000000000000000000000000CF
:1001300000000000000000000000000000000000BF
:1001400000000000000000000000000000000000AF
:10015000000000000000000000000000000000009F
:10016000000000000000000000000000000000008F
:10017000000000000000000000000000000000007F
:10018000000000000000000000000000000000006F
:10019000000000000000000000000000000000005F
:1001A000000000000000000000000000000000004F
:1001B000000000000000000000000000000000003F
:1001C000000000000000000000000000000000002F
:1001D000000000000000000000000000000000001F
:1001E000000000000000000000000000000000000F
:1001F00000000000000000000000000000000000FF
:1002000010B5054C237833B9044B13B10448AFF350
:1002100000800123237010BD90000020000000002A
:100220002C32000008B5034B1BB103490348AFF360
:10023000008008BD00000000940000202C32000067
:10024000154B002B08BF134B9D46A3F5803A0021A8
:100250008B460F461348144A121A02F021FD0F4B29
:10026000002B00D098470E4B002B00D09847002061
:10027000002104000D000D48002802D00C48AFF307
:10028000008002F0CDFC2000290002F0FBFA02F011
:10029000B3FC00BF000008000000042000000000C4
:1002A000000000009000002028090020000000004D
:1002B000000000000649074A074B9B1A03DD043B78
:1002C000C858D050FBDC02F0B5FBFFF7B9FF0000C7
:1002D0007C3200000000002090000020FEE7FEE7D6
:1002E000FEE7FEE7FEE7FEE7FEE7FEE7FEE7FEE7E6
:1002F000F0B595B000241D460E460846174601F09D
:10030000DFF9304623460822099505A91A9D08976A
:100310000D950A948DF82C400C9401F035FA9DF857
:1003200014308DF81140DDE9061003F00302012AB4
:10033000CDE9020128D0022A04D0304601F0C4F9E8
:1003400015B0F0BDBDF81650C3F3C2038DF81030E0
:10035000C5F389150827082D2C4628BF08243B46DD
:1003600022460EA9304601F00FFA2D1B214608AB9C
:1003700002AA0EA8274400F035FC002DEBD1304630
:1003800001F0A2F915B0F0BDBDF81470059DC7F3DA
:100390008312C3F3C2040EA93046920008238DF8DD
:1003A0001040C7F3831701F0EFF9C5F3952508ABAB
:1003B0003A4628460EA9009302AB00F09BFB30465C
:1003C00001F082F915B0F0BD704700BF00B583B0F1
:1003D000044B0093044A4023FFF78AFF03B05DF803
:1003E00004FB00BFED030000B000002038B50E484C
:1003F0000E4D03780E4CEB5C00252570D2B253B144
:10040000043002F0DFF958B90A4B1B7813B1237896
:10041000002BFCD038BD0C3001F00CFF0028F3D0CD
:1004200000F05EFCF0E700BF00000020140900208F
:10043000F0000020AC0000202DE9704319481A4A52
:100440000378D35C88B02BB3043002F01FF9174D4A
:100450000FCD6C460FC495E80F004FF0EB7684E8A3
:100460000F004FF006084FF0FF394FF0FF344FF008
:10047000FF350C48069600226946CDE90089CDE992
:10048000024501F0F7F948B9094B00221A7008B08B
:10049000BDE870830C3001F04FFED8E700F020FC7F
:1004A000F2E700BF0000002014090020A82E000081
:1004B000AC0000202DE97043134D0FCD88B06C4681
:1004C0000FC495E80F004FF0EB7684E80F004FF073
:1004D00006084FF0FF394FF0FF344FF0FF350B485F
:1004E000069600226946CDE90089CDE9024501F072
:1004F000C1F928B9064B00221A7008B0BDE8708314
:1005000000F0EEFBF6E700BFA82E00000000002080
:10051000AC00002008B5FFF7CDFF0448042100F02F
:1005200065FA034B01225A7108BD00BF503200002A
:100530001400002038B50C4B0C48FF220024002585
:10054000C3E9004501219A600022C3F8182483F80A
:100550002014C3F8142401F067F8044610B90448C5
:1005600001F046F9204638BDC80100206032000085
:10057000002F000099B10E4B0E495B1ADB0815D015
:1005800030B400220C4D02E0013293420BD035F81A
:1005900022408442F8D151F8320030BC70470549FE
:1005A00051F830007047002030BC70471846704743
:1005B00050320000303200008C000020094B01391D
:1005C00003EBC00003290BD8DFE801F004020806A2
:1005D00004207047022070474079704700797047C7
:1005E00000207047303200002DE9F047934CD4E9E9
:1005F00000239A4284B063D00023C4F81834BFF3B8
:100600004F8FD4E9013503EA0501CA1C04EB8206C9
:1006100014F82220500719D52768327802F0030217
:10062000012A43D0022A03D17288023303EB9213CA
:1006300005EA0301D4F81804CA1C04EB820628B9A1
:100640009F4239D914F822205207E6D404EB8101E5
:100650005A1CC96801912A4004EB820201F003018F
:10066000D2680292022903F102062DD0012900F07E
:100670009080D4F810543DB12B6828469B68984769
:10068000EB681D68002DF7D16D486E4B6E49C01A9E
:10069000C008000440F0020000F0DCF8D4E90030AB
:1006A000C01A18BF012004B0BDE8F08732880233B9
:1006B000C2F383121344BBE7676004B0BDE8F08760
:1006C000002004B0BDE8F087BDF806305F48C3F3F2
:1006D0008919B9F1500FC84628BF4FF0500868F388
:1006E0008F1308F10801ADF8063000F09FFF0746B0
:1006F0000028BED000F0E4FF0023082201A93846FC
:1007000001F00EF825EA06030133B8EB830F4FEA38
:10071000830A78D9BAF1000F00F0888005EA060153
:100720000331A8EB0A0804EB81010823524638463E
:100730005FFA88F800F0F4FF454942460AF10803E1
:10074000384600F0EDFF09F1030906EB9906D4F8ED
:100750001834002B66D1D4F8105465B1EB685A797F
:1007600028463946002A59D02B681B689847EB6801
:100770001D68002DF2D1384600F0A6FF002000F0E1
:10078000F7FAD4F8183403B96660002000F0F8FADC
:1007900084E7BDF804302D48C3F38312062A28BF2E
:1007A0000622911C62F389138900ADF8043000F031
:1007B0003DFF074600283FF45CAF00F081FF0023B7
:1007C000082201A9384600F0ABFFBDF8043013F44D
:1007D000707FBCD04FF00008314629404FEA8803B3
:1007E0000331083304EB81010422384600F098FFFE
:1007F000BDF8043008F10108C3F38313434506F143
:100800000106E9D8A3E705EA0601033104EB8101FB
:1008100042460823384600F083FF94E71D68002D08
:100820009CD1A8E7384600F04FFF37E70849424619
:100830000823384600F074FF85E700BFC801002098
:100840004832000030320000E82E00006032000024
:10085000D40100202DE9F04F624C87B006460020FD
:10086000A568019100F084FAD4E9012327681A44AD
:100870000132D21B012A00F2858004F21C4804F5E3
:10088000836A04F214491BE0BDF80E30C3F38913E8
:100890000333090C0BEB930B4846009100F0B4FABC
:1008A000009900283ED04046C4F804B000F080FA19
:1008B000D4E90113226819440131891A012962D847
:1008C0000121404600F074FA504600F08DFA484687
:1008D00000F08AFAD4E9013C03EA0C02D11C04EBD3
:1008E000810014F821E01EF0040F0EF0040129D15C
:1008F00004EB8202591CD268039201EA0C0104EB5A
:10090000810102F00302012AC96803F1020B32D00F
:10091000022AB9D000214846009100F075FA0099EA
:100920000028C0D14046C1E743880BEB93130CEA83
:100930000302D11C04EB810014F8211001F0040122
:100940000029D5D090F800E00EF0030EBEF1010FA3
:100950000BD0BEF1020F03F1020B02F1030EE3D044
:1009600004EB8E000029EDD1C2E702880233C2F306
:1009700083121344DBE7BDF80C30C3F38313090C77
:100980009B4489E73A461340033302320521002095
:1009900044F82310226000F0F3F90021124800F01F
:1009A000F9F980F31000F1007B1C2B40019A01F053
:1009B00038013D4004EB830341F00101000403359D
:1009C00040EA164641EA8221DE6044F8251094F898
:1009D00020341BB1FFF708FE0028FBD107B0BDE8AB
:1009E000F08F00BFC8010020E405002030B4154D91
:1009F000D5F810140446002071B10B4601E01B68C5
:100A000053B1DB681A798242F9D101300A28F3D157
:100A10004FF0FF3030BC7047E3681871D5F81034E0
:100A20004BB1DA68E36812681A60D5F81034DB68F5
:100A30001C6030BC7047C5F81044E268136030BCDD
:100A4000704700BFC801002038B5094BD3F81044E7
:100A5000012583F820544CB1E3685D71236820467A
:100A60005B689847E3681C68002CF5D138BD00BF6F
:100A7000C801002030B5C38885B004460D461BBBB5
:100A8000217A05291ED0627A82B9134AA08852F8C9
:100A9000212003920021FFF76DFD039A0F490346C1
:100AA000284605B0BDE8304000F022BAA088FFF724
:100AB00085FD0B4B0B4953F82020284600F018FA0F
:100AC000217AE2E705B030BD074A00920749084A9B
:100AD000284600F00DFAD3E7D82F0000382F000089
:100AE000B42F0000342F00002C2F0000142F000022
:100AF0000C2F00002DE9F04385B04FF0000C0C9C4A
:100B0000814694F80C8084F80CC00E4617461846AF
:100B100021461D46FFF7AEFF062F09D8DFE807F094
:100B2000042E343B444F1F004946204600F0E0F9B4
:100B30002B7A052B05D06B7A5BB92749204600F04C
:100B4000D7F9204600F0C8F984F80C8005B0BDE85C
:100B5000F083224A2249204600F0CAF9EDE7D6E99F
:100B60000413F2680393B3680291CDE90032494659
:100B7000D6E90023204600F0BBF9D9E732684946A0
:100B8000204600F0B5F9D3E7D6E9002349462046D0
:100B900000F0AEF9CCE7B3680093D6E900234946EC
:100BA000204600F0A5F9C3E7D6E90232019200938E
:100BB000D6E900234946204600F09AF9B8E7D6E97D
:100BC0000321B3680291CDE900324946D6E90023FA
:100BD000204600F08DF9ABE7442F00002C2F0000D9
:100BE000342F0000082900D970472DE9F04F9B46AB
:100BF00083B000241B7B8BF80C400D4606465946FB
:100C0000104690460193DFF8D0902C4FFFF732FF4B
:100C100005E0325D013400F06BF9082C09D0A542E3
:100C200039465846F5D84946013400F061F9082C98
:100C3000F5D12349DFF8A490224C234F584600F009
:100C400057F94FF0000A0DE0D15D11F0970F08BF82
:100C50002E22214658460AF1010A00F049F9BAF15C
:100C6000080F10D0554505D916F80A207E2AEBD971
:100C70002E22EEE7494658460AF1010A00F038F9FB
:100C8000BAF1080FEED198F80830052B02D098F889
:100C9000093063B90D49584600F02AF9584600F06A
:100CA0001BF9019B8BF80C3003B0BDE8F08F084AAC
:100CB0000849584600F01CF9ECE700BF482F000037
:100CC000542F0000582F000027310000442F00004F
:100CD0002C2F0000342F0000502F0000402F000068
:100CE00000B585B00346002101AA44F20100CDE918
:100CF0000111039300F004F805B05DF804FB00BF98
:100D000010B572B6FFF7A0FEFFF76EFC0028FBD10E
:100D1000104B114C1149E41AE408240444F001007A
:100D2000FFF798FD0E4B1B68DB0700D500BE0D4991
:100D300044F00200FFF78EFDBFF34F8F0A490B4BC3
:100D4000CA6802F4E0621343CB60BFF34F8F00BF69
:100D5000FDE700BF3032000048320000EC2F0000F9
:100D6000F0ED00E0F82F000000ED00E00400FA05CF
:100D700072B6024A1368013313607047840600207C
:100D8000034A1368013B136003B962B6704700BFA2
:100D90008406002010B4034653E8000F0A4643E8D7
:100DA000002494F0000FF7D15DF8044B704700BFAA
:100DB00010B4034653E8002F02EB010043E800049F
:100DC00094F0000FF6D15DF8044B704710B4034661
:100DD00053E8002FA2EB010043E8000494F0000F59
:100DE000F6D15DF8044B704710B40346012253E876
:100DF000001F41EA020043E8000494F0000FF6D11E
:100E00005DF8044B704700BF10B40346002253E85E
:100E1000000F00EA020143E8001494F0000FF6D13D
:100E20005DF8044B704700BFB8B130B4D0E901128F
:100E3000521A0468D2B2531E2160DBB242B101687B
:100E40000A685C1E551C0D601370E3B2FF2BF6D1CF
:100E500003680020187130BC70470E20704700BF37
:100E600038B504460020FFF783FFD4E900311A6843
:100E70008A4215D9511E19602168A3680868258A1D
:100E800012F8012CE4681B1A0879DBB2984205FBC2
:100E9000024400D20B710020FFF772FF204638BDDC
:100EA00000240020FFF76CFF204638BD38B505460A
:100EB00000200C46FFF75CFF2A681368591C11607C
:100EC000E9682A8A641AB4FBF2F41C70BDE8384061
:100ED0000020FFF755BF00BF826842B110B504463D
:100EE00043690168006998470023A36010BD7047FB
:100EF0000EB400B582B0039921B104AB01AA0193ED
:100F000000F0ACF802B05DF804EB03B0704700BF2E
:100F10002DE9F04F164683B0B142DDE90C920F4641
:100F200005469A46C0F095800B464FF00108B3FB8A
:100F3000F6F39E4208F10108F9D9D04538BFD046F2
:100F400012F00103019302D1B9F1000F5ED1AA683A
:100F5000012403E00AF1FF3A06FB04F4BAF1010FA1
:100F6000F8D8B7FBF4F39E42F6D9DFF8ECA007E01F
:100F7000B442B4FBF6F31AD3AA681C46B7FBF3F3EA
:100F80001AF803B0BBF10A0F04FB137728D02B68C3
:100F9000511CA96003F802B0D5E901329A42E7D3A7
:100FA0002846FFF799FFB4FBF6F3B442E4D2019B65
:100FB0009BB1B9F1000F10D02024C84509F1FF39C9
:100FC0000BD2AB682A68591CA960D454D5E9013208
:100FD0009A4214D2B9F1000FEFD103B0BDE8F08FFF
:100FE000511C2B68A9604FF00D019954D5E90132CD
:100FF0009A42CCD32846FFF76FFFAA68C7E7284676
:10100000FFF76AFFB9F1000FD7D1E6E793071AD4CB
:101010002024AA68C84502F1010199D22B68A96071
:101020009C54D5E901329A4209F1FF3903D2B9F152
:10103000000FEFD18CE72846FFF74EFFAA68B9F101
:10104000000FE7D184E7BAF1000F0CBF3024202451
:10105000DFE74FF0010870E708300000002900F0DA
:1010600054822DE9F04FDFF8B8950C7885B006462C
:1010700090460D464FF00D0A10E00A2CB36800F0C0
:10108000AD803268591CB160D454D6E901329A421D
:1010900080F0A0802C78002C00F087800135002C97
:1010A00000F08380252CE8D1294600270D4611F851
:1010B000012B2D2A00F08880302A00F088802B2A0E
:1010C0007AD02A2A00F09980A2F13003092B4FF040
:1010D00000040BD804EB840402EB440415F8012F40
:1010E000A2F13003092BA4F13004F3D92E2A00F029
:1010F0009080002301E015F8012F02F0FB01682920
:10110000F9D0252A00F07781583AD1B2202947D862
:10111000202A45D8DFE812F035014400440044009D
:10112000440044004400440044004400440043019F
:1011300013014400440044004400130144004400EF
:101140004400440044004400D20044004400A20093
:1011500044009400440044003501012098420246B6
:1011600038BF1A460292002C40F05081B80740F177
:101170006E81002B40F04E821C46BBF1000FC0F286
:101180000A827A0700F11A8207F00302022A00F0AD
:10119000EA81CDE9004759460A223046FFF7B8FEFA
:1011A00001352C78002C7FF479AF337B002B40F095
:1011B0001C8105B0BDE8F08F0D4611F8012B2D2ADA
:1011C00047F004077FF478AF47F001076EE747F078
:1011D00002076BE73046FFF77FFE5BE73268591C7A
:1011E000B16002F803A0D6E901239342FFF449AFAE
:1011F0003046FFF771FEB36843E7D8F800301A1D98
:10120000C8F800206A781C682E2A05F101057FF4D1
:1012100070AF6A78A2F13003092B05F101054FF098
:1012200000033FF66AAF03EB830302EB430315F8B9
:10123000012FA2F130010929A3F13003F3D95CE7B2
:10124000D8F80020111DC8F8001011683046CDE90B
:1012500000470A22FFF75CFE0135A2E7D8F800300C
:101260001A1DC8F8002017F00107D3F800B040F0AD
:10127000F080BBF1000F03D0584601F071FD074626
:10128000BC4240F24381002C00F04081202205E066
:10129000BC4200F03B81002C00F03881B16833681B
:1012A000481CB0605A54D6E90130984204F1FF342A
:1012B000EED33046FFF710FE2022E9E7D8F80020F1
:1012C000131DC8F80030B36831681768581C302205
:1012D000B060CA54D6E90123934280F0EF803268AF
:1012E000581C7821B060D154D6E901329A4280F07E
:1012F000E0800F2F03D93B461B090F2BFCD84FF082
:10130000805406E00F2C4FEA14137FF649AFB26801
:101310001C46B7FBF4F319F803B0BBF10A0F04FB4A
:10132000137754D03368511CB16003F802B0D6E98A
:1013300001329A42E6D33046FFF7CEFDE2E7D8F815
:101340000020111DC8F80010D2F800B08BEAEB7233
:10135000A2EBEB72092A7FF700AFDFF8C8C20120C9
:1013600011466329ACFB02E200F101004FEAD20210
:10137000F6DC9842024638BF1A460292002C45D14C
:10138000F4E6D8F80020111DC8F8001011683046A6
:10139000CDE900471022FFF7BBFD013501E7D8F882
:1013A00000301A1DC8F800201C78B3680A2C00F021
:1013B00011813268591CB160D454D6E901329A4285
:1013C000FFF4EEAE3046FFF787FD0135E9E63368FE
:1013D000511CB16003F802A0D6E901329A42A1D3B0
:1013E0003046FFF779FDB2689CE7304605B0BDE8AE
:1013F000F04FFFF771BDB3683168581CB060CA5434
:10140000D6E901329A42DDD20135CAE6BBF1000FBE
:1014100059DB7A0757D4B80702D5002B3FF4ADAE9D
:10142000F9073FF5AAAE94B120220299A142BFF478
:10143000A4AEB168481CB06030684254D6E90101DE
:10144000814204F1FF3480F0D480002CEDD10024DF
:1014500093E69BF80030002B00F0E080B0685F4618
:10146000CBF101020A2B02EB070B3CD0411CB1600F
:1014700031680B54D6E90130984226D217F8013F63
:10148000002BEFD15C457FF68BAE202702E05C4558
:101490003FF486AEB2683368511CB1609F54D6E900
:1014A00001329A4204F1FF34F1D33046FFF714FDC4
:1014B000EDE73046FFF710FDB2681AE73046FFF758
:1014C0000BFDB3680BE7013CA5E730460292FFF73E
:1014D00003FD17F8013F002BD4D0029AB0680A2B05
:1014E00002EB070BC2D1411CB160316801F800A0CA
:1014F000D6E901108842B9D33046CDE90232FFF770
:10150000EBFCDDE90232B068B0E770479BF80040C1
:10151000002C3FF445AE0A2CB0680ED03368421C54
:10152000B2601C54D6E90130984214D21BF8014F26
:10153000002C3FF435AE0A2CF0D13368421CB26067
:1015400003F800A0D6E901309842E7D33046FFF710
:10155000C3FCB068E2E73046FFF7BEFC1BF8014F62
:10156000002CD8D11CE6002B7FF413AE8CB13022B6
:101570000299A142BFF40DAEB168481CB06030685A
:101580004254D6E90101814204F1FF343BD2002CE0
:10159000EED10024FDE5B1684A1CB26032682D200E
:1015A0005054D6E901219142CBF1000BFFF4ECAD90
:1015B00030460393FFF790FC039BE5E5B1684A1CB6
:1015C000B26032682B205054D6E901219142FFF4D9
:1015D000DBADEDE73268591CB16002F803A0D6E933
:1015E00001239342FFF4E5AE3046FFF775FCB36884
:1015F000DFE630460393FFF76FFC039B2022002CAD
:101600007FF413AF23E730460393FFF765FC039B9A
:101610003022BCE7F9073FF5B0AD18E79B4631E74C
:1016200008300000CDCCCCCCFFF7FEBB2DE9F0415B
:10163000058A0331043D4E198046B6FBF5F6FFF7E7
:101640000FFCA0B3F6B24FF48073013E0446C58090
:10165000C0F8008083802BD00346002508E0627923
:10166000AE4202F1010262713860C0F800801FD002
:1016700040461F46FFF7F4FB013503460028EED134
:101680006779791E17D02246013399421268FBD13F
:10169000D2F800805FB12668002501E03446366844
:1016A000214601354046FFF701FCAF42F6D8002441
:1016B0002046BDE8F08120682146FFF7F7FBF6E7FA
:1016C00004300121FFF774BB2DE9F04101210446EC
:1016D0000430FFF77BFB10F0FF0301D0BDE8F08181
:1016E0006779791E16D02246013399421268FBD1E0
:1016F000D2F80080002FF1D02668002501E03446A2
:101700003668214601354046FFF7D0FBAF42F6D898
:10171000BDE8F08120682146BDE8F041FFF7C6BB77
:101720002DE9F8430546C6884079144606FB00F2C9
:10173000043A04EB030C1F1D624538BFD41ABE42A5
:101740008846B7FBF6F106FB117002D801392D6807
:10175000FCD1371AA74228BF27469CB14FF0000999
:101760000430E41B28443A4608EB090101F08AFAE8
:10177000A642B9442D6837464FF0000028BF2746DF
:10178000002CEDD1BDE8F8832DE9F8430546C68865
:101790004079144606FB00F2043A04EB030C1F1DCB
:1017A000624538BFD41ABE428846B7FBF6F106FB45
:1017B000117002D801392D68FCD1371AA74228BF11
:1017C00027469CB14FF0000904302918E41B3A4623
:1017D00008EB090001F056FAA642B9442D683746D5
:1017E0004FF0000028BF2746002CEDD1BDE8F8835C
:1017F0008268002393608268136182685361826803
:10180000D3608268536082681360704730B585B0DA
:10181000047845688DF80040D0E90240064A074B3D
:10182000039053F82130019552F821108DF80840AB
:101830006846984705B030BD880600209006002015
:1018400030B585B0047845688DF80040D0E9024095
:10185000064A074B039053F82130019552F82110A6
:101860008DF808406846984705B030BD88060020CE
:10187000900600202DE9F047DFF8748090F800E032
:101880004B7F08F80E300D46074616460FCD88B040
:101890006C460FC495E80F003D78DFF85890DFF8EC
:1018A00058C018F8055049F82E6084E80F004CF82D
:1018B0002E00CDF810E05DB1002E0B4A694607F10D
:1018C000040008BF324600F0D1FD08B0BDE8F08743
:1018D000002E064A694607F10C0008BF324600F0A8
:1018E00037FB08B0BDE8F0870D1800004118000074
:1018F000140900209006002088060020014B1B6878
:10190000184700BF9806002038B50C4B984213D1F9
:1019100000200D46FFF72CFA094B1C7924B100205A
:10192000FFF72EFA112038BD012220461D601A71E2
:10193000FFF726FA204638BD002038BD00200040C1
:1019400098060020034B984203D1034B00221A60F3
:101950001A7170470020004098060020F8B5474CE7
:101960002379002B40F086800579FF2D7DD04379C7
:10197000FF2B7AD08379FF2B77D0C379FF2B74D0DC
:101980003F4BC3F824554579FF2D08BF4FF0FF3575
:10199000C3F828558579FF2D08BF4FF0FF35C3F8F0
:1019A0003055C579FF2D08BF4FF0FF35C3F83455CA
:1019B000057AFF2D08BF4FF0FF35C3F83855457A3B
:1019C000FF2D08BF4FF0FF35C3F83C550568C3F83D
:1019D0004055037BC77A867A457B9B0143EAC70360
:1019E0003343002D43D1264DA260C5F84435D5F8C8
:1019F0000036867B077C427C23F07F4323F0FF0385
:101A00003343C67B43EA4763002E43EA027314BFA5
:101A10004FF080720022134300260122C5F80036E1
:101A200021606671C5F8082341B1837C154A5B01CA
:101A3000DBB24FF4007182F829335160104A124D25
:101A4000124E01230021C2F800351E432371296084
:101A50006424136002E0B047013C0DD02B684FF4C2
:101A60002070002BF7D00020F8BD0720F8BD43F010
:101A70008003B8E70820F8BD0D20F8BDA0060020BF
:101A80000090024000E100E00091024020300000A0
:101A90004B4B5B79002B7FD12DE9F041904603F051
:101AA000FF02484B07461A6011B34378023B072BED
:101AB0001ED8DFE803F07B7977107573048000236C
:101AC0008A7943EA02434A7943EA02230A793E4883
:101AD0001343C0F83C36CB781B068A7843EA0243AE
:101AE0004A7843EA02230A7837491343C1F8383663
:101AF000354A364D334E0123C2F80833BB78787827
:101B000039781B0343EA0023F8780B43397943EA19
:101B1000403343EA8133797943EAC133C2F834363A
:101B200045F00105642402E0A847013C40D0336839
:101B30004FF42070002BF7D000233360B8F1000F72
:101B40000ED07B78204A023BD2F83C16D2F83826D9
:101B5000072B33D8DFE803F01B181512100D0A0706
:101B60004046BDE8F0810B0E88F807300B0C88F872
:101B700006300B0A88F8053088F80410130E88F830
:101B80000330130C88F80230130A88F8013088F803
:101B900000200020BDE8F08111207047002392E76B
:101BA000002393E7002398E7002399E700239AE7AF
:101BB0000D20BDE8F081CB791B0681E70020D0E73E
:101BC000A00600200091024000900240203000005A
:101BD00070B4104A104ED2F83436104C104D1148E3
:101BE000114903F44033B3F5803F04BF0F4BC2F8F3
:101BF0003436084A0123C2F80833336023600023D7
:101C00004FF40074C2F800352B71C0F884400B60AB
:101C100070BC704700900240109002405490024007
:101C2000A006002000E100E0009102400001030056
:101C300000F06043B3F1005F1DD110F003031AD12F
:101C400030B4124C124DC4F81025C4F81405C4F871
:101C500018156A79BAB90F4A13602A681AB10122B5
:101C60006A71C4F804230C4A012111602A682AB160
:101C7000184630BC704710231846704705490A685B
:101C8000002AFCD0F4E71123F2E700BF00900240E5
:101C9000A0060020009102400890024000F060433E
:101CA000B3F1005F1DD110F003031AD130B4124C10
:101CB000124DC4F80425C4F80805C4F80C156A7957
:101CC000BAB90F4A13602A681AB101226A71C4F8BE
:101CD00004230C4A012111602A682AB1184630BC3D
:101CE000704710231846704705490A68002AFCD03F
:101CF000F4E71123F2E700BF00900240A0060020A5
:101D00000091024004900240034611F0030018D1F4
:101D100010B4124C124AC4F81C15C4F8203553797B
:101D2000C3B9104B186013681BB101235371C4F879
:101D300004330D4B01211960136823B15DF8044B86
:101D4000704710207047074A1368002BFCD05DF8DD
:101D5000044B704711205DF8044B7047009002401F
:101D6000A0060020009102400C900240054B1A682A
:101D700032B1054A00205071186013689168184705
:101D8000704700BF00910240A006002030B56E4AA7
:101D9000D2F8043399058BB068D5D2F82431002BE2
:101DA00064D00023C2F82431D2F8243101934FF4D7
:101DB0000171664B0198C2F8081393F8291009B90C
:101DC00001215160604902228DF81820D1F8802449
:101DD000C1F880249869D968099200240025CDE9CA
:101DE0000710C3E90645D3E9001206A89047564AF2
:101DF000D2F81C31C3B1554B5869196A88426AD967
:101E000093F8281001F0FF00002964D1C2F81C01EA
:101E1000D2F81C11039103999C68186A196A205C16
:101E200001311962C2F81C05474AD2F84431DBB1CE
:101E30000021464BC2F84411D2F8440193F829100E
:101E40000090009809B1012111609A6962B1586A45
:101E5000D96800229A610122CDE907108DF8182077
:101E600006A8D3E9001290470BB030BD364AD2F82D
:101E700004335B07BBD5D2F80831002BB7D0334B06
:101E8000996900293ED00021C2F80811D2F8081142
:101E900004910499D868596AD2F8182542545A6AAC
:101EA000996901325A625A6A8A42A0D1DA69002AD3
:101EB00031D0DD685C6A18699A6101210022D8601E
:101EC000DA615A628DF81810CDE90754D3E900128F
:101ED00006A890478BE71C4A0021C2F81C11D2F8D3
:101EE0001C210292029A5A69002A9DD058699A6868
:101EF0008DF8181008905961079206A8D3E90012CE
:101F0000904791E7C2F80811D2F8080105900598AA
:101F1000D2F81825C7E793F8292012B90A4A0121F7
:101F20005160094A4FF40171C2F80813596ADA681E
:101F300008910024012007928DF81800D3E90012BF
:101F40009C6106A8904752E700200040B0060020A0
:101F50002DE9F041DFF8DC8106792C2303FB0683B1
:101F600082B093F82A30002B40F09A8005460C4648
:101F700000686B491746FFF7C7FC002840F08C80CB
:101F80002368591C19D01F2B4FF001028ABF6549E5
:101F90004FF0A04103F01F0302FA03F3C1F8083524
:101FA00023681F2B86BF03F01F035E4A4FF0A04239
:101FB00003F5E073032142F8231063685A1C0BD029
:101FC0001F2B86BF03F01F03564A4FF0A04203F5B4
:101FD000E073002142F823102B68A269C3F824257E
:101FE000217D637D2A680B43C2F86C35D4E9001269
:101FF0002B68C3F81425C3F80C15237D012B5BD087
:102000002C2303FB06F308EB03025760226948F810
:10201000032077B32A68237F434C0021C2F81C11A8
:10202000D2F81C2100922A68009FC2F84411D2F80D
:1020300044112A6801910199C2F804432A6842F3C5
:10204000073100294FEA12322EDB01F1604101F520
:1020500061415B01DBB281F800332B68334C43F301
:1020600007325209C3F30433012101FA03F344F8A0
:1020700022302C23296803FB068604240023012236
:10208000C1F80045C6E9063386F82A2086F82930CB
:10209000736102B0BDE8F081112002B0BDE8F081AB
:1020A000082002B0BDE8F081214902F00F025B0177
:1020B0001144DBB20B76D0E7A368591C0BD01F2B61
:1020C00086BF03F01F0317494FF0A04103F5E073EB
:1020D000002241F82320E3685A1C1AD01F2B8ABF24
:1020E00010494FF0A04103F01F03012202FA03F34D
:1020F000C1F80835E3681F2B88BF03F01F0303F501
:10210000E0738CBF07494FF0A041032241F8232020
:10211000E3682A68A168C2F80835C2F810156FE7AD
:102120008D1D0000000300508000020000E100E06F
:10213000FCEC00E0B0060020F8B53A4F04790268E4
:102140002C2303FB047300215B68C2F8001583B1E4
:102150000368354AC3F808230268344D42F3073355
:102160005B092033C2F30432012101FA02F245F87F
:10217000232003684FF0FF3CD3F80C65D3F81455C7
:10218000D3F80825D3F81015C3F814C5C3F80CC547
:1021900003686645C3F808C5C3F810C50CD01F2EE8
:1021A00086BF06F01F06224B4FF0A04306F5E076EF
:1021B0004FF0020C43F826C06E1C0BD01F2D86BFBB
:1021C00005F01F051A4B4FF0A04305F5E0750226F8
:1021D00043F825604D1C0BD01F2986BF01F01F015D
:1021E000134B4FF0A04301F5E071022543F8215055
:1021F000531C0BD01F2A86BF02F01F020C4B4FF05E
:10220000A04302F5E072022143F822100068FFF7B4
:1022100099FB2C2303FB0474002384F82A306360A9
:10222000F8BD00BFB00600208402020000E100E01B
:10223000000300502DE9F041314E05792C2303FBBA
:1022400005630446586984B000284CD15A619960EE
:10225000186283F828002268C2F81C01D2F81C1109
:10226000226802910121029F91602268D3F808C080
:10227000C2F81C01D2F81C11019101991F6A196A58
:102280001CF8077001311962C2F81C755A6812B146
:1022900004B0BDE8F0815F691A6A216897421BD9D2
:1022A000864602E093F828200ABBD1F81C21002AB8
:1022B000F8D0C1F81CE1D1F81C210392039AD3F89D
:1022C00020801A6A1CF8088001321A62C1F81C8545
:1022D0001A6A9742E9D82168D1F81C31002BFBD04B
:1022E0000123CB6004E0112004B0BDE8F0810F2091
:1022F0002C2303FB056500236B6104B0BDE8F0816E
:10230000B006002030B5574BD3F824218BB0002AFB
:1023100075D00022C3F82421D3F82421049202228C
:102320008DF81820049AD3F880144F4AC3F880140B
:102330000991D3F83C15D368089100240025079330
:10234000C2E906451168536806A89847454BD3F87B
:10235000442152B10021444AC3F84411D3F8440146
:10236000916903900398002938D13E4BD3F820217E
:102370005AB10021C3F82011D3F820210292012084
:10238000394A029CD8605069D8B9364BD3F85821E5
:10239000AAB10021C3F85811D3F85801324A01906C
:1023A0000198506958B1D3F84C05936808908DF89E
:1023B00018105161079306A8D2E9001398470BB093
:1023C00030BDD3F84C05936808908DF81810516112
:1023D000079306A8D2E900139847D6E7D3F83C350F
:1023E000D168089300240025012307918DF8183047
:1023F000C2E90645D2E9001306A89847B5E7D3F825
:1024000010110029A2D0C3F81021D3F810111648DA
:10241000059105998469D3F83C15A14296D1C46908
:10242000A4B1D3F80052846125F02005C3F800520E
:10243000D0E90343C26101220891C3600168436887
:1024400007948DF8182006A898477FE7C268846132
:102450000123CDE907218DF81830D0E9001306A833
:10246000984773E700200040E00600202DE9F04384
:102470000779804E07EBC70306EB830387B093F819
:102480002030002B40F0B58004460D4600687A49A4
:102490009046FFF739FA002840F0A7802B68591CB6
:1024A0004FEAC70919D01F2B4FF001028ABF7349A9
:1024B0004FF0A04103F01F0302FA03F3C1F80835FF
:1024C0002B681F2B86BF03F01F036C4A4FF0A042FE
:1024D00003F5E073032142F823106B685A1C0BD0FC
:1024E0001F2B86BF03F01F03644A4FF0A04203F581
:1024F000E073002142F823102368AA69C3F8242559
:10250000297D6A7D23680A43C3F86C25D5E900312B
:102510002268C2F80C35C2F814152B7D012B74D03B
:1025200009EB070206EB8203C3F804802B6946F827
:102530002230B8F1000F47D021682B7F504D002288
:10254000C1F81021D1F8101101912168DDF804C003
:10255000C1F82021D1F8201102912168DDF808C0CE
:10256000C1F82421D1F8241103912168DDF80CC0B1
:10257000C1F84421D1F8441104912168DDF810C05C
:10258000C1F85821D1F85811226805910599C2F86F
:102590000453226842F3073100294FEA12322CDB40
:1025A00001F1604101F561415B01DBB281F800336B
:1025B0002368344D43F307325209C3F30433012136
:1025C00001FA03F345F822304F44226806EB8706F0
:1025D000002301240821C2F80015C6E9063386F855
:1025E0002040736107B0BDE8F083112007B0BDE85B
:1025F000F083082007B0BDE8F083234902F00F0202
:102600005B011144DBB20B76D2E7AB68591C0BD0EF
:102610001F2B86BF03F01F0318494FF0A04103F59D
:10262000E073002241F82320EB685A1C1AD01F2BBC
:102630008ABF12494FF0A04103F01F03012202FAA2
:1026400003F3C1F80835EB681F2B88BF03F01F03A5
:1026500003F5E0738CBF09494FF0A041032241F814
:102660002320EB682268A968C2F80835C2F8101563
:1026700056E700BFE00600200523000000030050DD
:102680001003420000E100E0FCEC00E0F0B5057949
:10269000484C05EBC50304EB830383B05B68EE0095
:1026A00083B10368444AC3F808230268434F42F3E6
:1026B00007335B092033C2F30432012101FA02F22D
:1026C00047F823200268D2F8003223F02003C2F832
:1026D000003202680123536002680021C2F85811D9
:1026E000D2F85811026801910199D3600268D2F8BA
:1026F0005831002BFBD00023C2F8003503684FF09F
:10270000FF3ED3F80CC5D3F81475D3F80825D3F8D9
:102710001015C3F80CE5C3F814E50368F445C3F8D5
:1027200008E5C3F810E50DD0BCF11F0F86BF0CF013
:102730001F0C234B4FF0A0430CF5E07C4FF0020E32
:1027400043F82CE07B1C0CD01F2F86BF07F01F071F
:102750001B4B4FF0A04307F5E0774FF0020C43F816
:1027600027C04F1C0BD01F2986BF01F01F01144B3F
:102770004FF0A04301F5E071022743F82170531C8C
:102780000BD01F2A86BF02F01F020D4B4FF0A04353
:1027900002F5E072022143F822100068FFF7D2F838
:1027A000354404EB8504002384F82030636003B0D3
:1027B000F0BD00BFE00600201003420000E100E091
:1027C00000030050F0B401F06044B4F1005F82B047
:1027D0002CD10579274E05EBC50406EB840403468E
:1027E0006069EF0000283ED16261A1601A68C2F8FA
:1027F0002001D2F820C11A68CDF804C0DDF804C069
:10280000C2F85801D2F8582100921A68DDF800C0C9
:10281000D4F814C0C2F84415C2F848C51A6801219A
:102820009160626832B102B0F0BC7047102002B013
:10283000F0BC70471A6800E0C8B9D2F82011D2F88D
:1028400058010029F8D090B90121D1601B68D3F854
:102850005821002AFBD07B1906EB830300225A6122
:1028600002B0F0BC7047112002B0F0BC70470F20DE
:10287000F1E700BFE0060020014B01221A7070470B
:102880000409002070B5002188B00846FDF752FE0B
:10289000002840F09880FDF73DFE554D554B5649B8
:1028A000564CED1AED082D0445F003052846FDF7BA
:1028B000D1FF002000F0FCF904F5807600F01CFA4E
:1028C00004F8010FB442F9D14D4E0FCE03AC0FC442
:1028D00033684C492360002203A8FFF73FF8002823
:1028E00040F0838048492846FDF7B4FF474B93E802
:1028F000030000220190ADF80810402301A8114602
:102900008DF80330FFF7C4F800286BD1002299231B
:10291000114601A88DF80430FFF7BAF800285ED1FF
:1029200040F2012301A800220DF10301ADF80430AB
:10293000FFF7AEF800284FD1354C0021012021705F
:10294000FFF7E2F9002844D12378002BFCD031496D
:10295000002628462670FDF77DFF2F4832464FF4AB
:102960008071FFF765F988BB2378002BFCD02B49D9
:10297000002628462670FDF76DFF294832464FF4A1
:102980008071FFF78BF92378002BFCD000232549B9
:1029900023702846FDF75EFF23492846FDF75AFFBE
:1029A0001F491D484FF4807200F05EF930B91F498D
:1029B0002846FDF74FFFFFF70BF9FEE71C492846B5
:1029C000FDF748FFF7E7FEF78BF964E7FEF788F9B4
:1029D000CAE7FEF785F9B7E7FEF782F9ACE7FEF73D
:1029E0007FF99DE7FEF77CF990E7FEF779F979E743
:1029F0004832000030320000383000000308002068
:102A00000C310000792800007030000020310000F7
:102A1000040900208830000004080020B0300000C5
:102A200004070020D0300000DC300000E830000057
:102A3000F830000010B44FF080414FF08052002079
:102A4000C1F80C015E4BC1F81001C1F83805D2F88D
:102A50000414C3F82015D2F80814C3F82415D2F8CA
:102A60000C14C3F82815D2F81014C3F82C15D2F89A
:102A70001414C3F83015D2F81814C3F83415D2F86A
:102A80001C14C3F84015D2F82014C3F84415D2F82A
:102A90002414C3F84815D2F82814C3F84C15D2F8FA
:102AA0002C14C3F85015D2F83014C3F85415D2F8CA
:102AB0003414C3F86015D2F83814C3F86415D2F88A
:102AC0003C04C3F86805D2F840043E49C3F86C05DD
:102AD0000968D2F84424C3F87025082924D04FF09F
:102AE0008043D3F80024D20744BF6FF00102C3F83B
:102AF0000024354AD2F8883043F47003C2F8883095
:102B0000BFF34F8FBFF36F8F4FF01023D3F8002226
:102B1000002A23DBD3F80432002B1FDB2B4B2C4A7B
:102B20001A605DF8044B70472A4B1B68002BD6D106
:102B300029482A4A2A4C04602A492B4BFB20C2F818
:102B400018050A681B68294822F00F0203F00F03DA
:102B500013434FF400720B600260C0E7244A012364
:102B6000C2F80435D2F80034002BFBD04FF010230C
:102B700012211F4AC3F80012D2F80034002BFBD0F8
:102B80004FF0102312211A4AC3F80412D2F800346D
:102B9000002BFBD000231649C2F80435D1F80034CD
:102BA000002BFBD0BFF34F8F0749124BCA6802F4CA
:102BB000E0621343CB60BFF34F8F00BFFDE700BF60
:102BC00000C000403001001000ED00E01C000020BB
:102BD0000090D003340100108C56004000F00040FB
:102BE00048810300E40E0040580200104096024065
:102BF00000E001400400FA0508B5074B044613B194
:102C00000021AFF30080054B1868836A03B1984731
:102C1000204600F03BF900BF000000002832000011
:102C200070B50D4D0D4C641BA4100026A64209D1B1
:102C30000B4D0C4C00F02CF9641BA4100026A6428E
:102C400005D170BD55F8043B98470136EEE755F8BD
:102C5000043B98470136F2E78400002084000020FE
:102C6000840000208800002030B501390024A242F1
:102C700001D1002005E0035D01340D5DAB42F6D0CB
:102C8000581B30BD0A44914200F1FF3300D1704718
:102C900010B511F8014B03F8014F9142F9D110BD65
:102CA00002440346934200D1704703F8011BF9E741
:102CB00038B50D4B1D68AB6B04467BB9182000F08E
:102CC00057F80A4A0A4BA863C0E90023094B8360FE
:102CD0000B23838101220023C0E90423AB6B002274
:102CE0001C615A6138BD00BF200000200E33CDABFF
:102CF00034126DE6ECDE0500134B10B51C68A36BB7
:102D00007BB9182000F034F8104A114BA063C0E9D9
:102D10000023104B83600B23838101220023C0E931
:102D20000423A16B0C480A694B690C4C504304FB0B
:102D30000300A2FB04345A1C044444F10000C1E91E
:102D4000042020F0004010BD200000200E33CDAB49
:102D500034126DE6ECDE05002DF451582D7F954CB4
:102D6000034613F8012B002AFBD1181A01387047CB
:102D7000024B0146186800F003B800BF2000002095
:102D8000F8B5CD1C25F0030508350C2D38BF0C25F2
:102D9000002D064601DBA94203D90C233360002035
:102DA000F8BD00F057F821490A6814469CB9204F35
:102DB0003B6823B92146304600F03CF8386029468C
:102DC000304600F037F8431C23D10C2333603046E3
:102DD00000F046F8E3E723685B1B17D40B2B03D9FD
:102DE00023601C44256004E06368A2420CBF0B60B2
:102DF0005360304600F034F804F10B00231D20F03E
:102E00000700C21ACCD01B1AA350C9E72246646837
:102E1000CCE7C41C24F00304A042E3D0211A3046BE
:102E200000F008F80130DDD1CFE700BF080900202D
:102E30000C09002038B5064D0023044608462B60D7
:102E400000F016F8431C02D12B6803B1236038BD93
:102E500018090020014800F009B800BF200900202F
:102E6000014800F004B800BF2009002070477047F7
:102E7000044A05491368002B08BF0B46184410602C
:102E8000184670471009002028090020FEE700BFFF
:102E9000F8B500BFF8BC08BC9E467047F8B500BF47
:102EA000F8BC08BC9E467047FFFFFFFFFFFFFFFF17
:102EB000FFFFFFFFFFFFFFFF00000000000000001A
:102EC0000000D60106010000CD0300003904000017
:102ED000C9030000756172745F6C6F675F62616344
:102EE0006B656E64000000004261636B656E647325
:102EF00020666C7573686564000000006170700086
:102F0000EC0500207F0000006C0600201B5B313BBD
:102F100033316D0025734C6F67732064726F70706E
:102F20006564202825642925730D0A001B5B306D1C
:102F300000000000257300003C25733E2025733AF5
:102F4000200000000D0A000020253032780000002B
:102F5000202020007C000000256300001B5B313B2B
:102F600033306D001B5B313B33326D001B5B313BFB
:102F700033336D001B5B313B33346D001B5B313BE6
:102F800033356D001B5B313B33366D001B5B313BD2
:102F900033376D006572726F720000007761726E78
:102FA000696E6700696E666F000000006465627597
:102FB000670000002C2F00005C2F00000C2F000089
:102FC000642F00006C2F0000742F00007C2F000085
:102FD000842F00008C2F000000000000942F0000C0
:102FE0009C2F0000A42F0000AC2F000046617461EC
:102FF0006C206572726F720053797374656D207204
:103000006573657400000000303132333435363773
:1030100038394142434445465052530000000000B5
:103020000338FDD87047000055415254000000009D
:103030005541525445000000515350492077726960
:10304000746520616E642072656164206578616DCD
:10305000706C65207573696E672032346269742004
:1030600061646472657373696E67206D6F64650077
:1030700051535049206578616D706C65207374619F
:10308000727465642E00000050726F636573732064
:103090006F662065726173696E672066697273740A
:1030A00020626C6F636B20737461727400000000A7
:1030B00050726F63657373206F66207772697469ED
:1030C0006E67206461746120737461727400000023
:1030D000446174612072656164000000436F6D702B
:1030E0006172652E2E2E00004461746120636F6E44
:1030F00073697374656E74004461746120696E63F2
:103100006F6E73697374656E7400000000000000D8
:103110001311141516170403000001000001060026
:103120006601010101010020202020202020202014
:103130002828282828202020202020202020202067
:103140002020202020202088101010101010101097
:1031500010101010101010040404040404040404DB
:103160000410101010101010414141414141010163
:10317000010101010101010101010101010101013F
:10318000010110101010101042424242424202024D
:10319000020202020202020202020202020202020F
:1031A00002021010101020000000000000000000BB
:1031B000000000000000000000000000000000000F
:1031C00000000000000000000000000000000000FF
:1031D00000000000000000000000000000000000EF
:1031E00000000000000000000000000000000000DF
:1031F00000000000000000000000000000000000CF
:1032000000000000000000000000000000000000BE
:1032100000000000000000000000000000000000AE
:10322000000000000000000024000020000000005A
:1032300018300000000000002830000000000000EE
:103240003030000000000000FC2E000000000303EE
:10325000C82E000000000000D42E00001400002042
:10326000F4000020BC010020C4010020FC0000206C
:043270001800000042
:08327400CCCFFF7F0100000038
:10327C000000000000200040000000000020004082
:10328C000000000000000000FF0000000090D003D0
:10329C0024000020000000000000000000000000DE
:1032AC000000000000000000000000000000000012
:1032BC000000000000000000000000000000000002
:1032CC0000000000000000000000000000000000F2
:1032DC0000000000000000000000000000000000E2
:1032EC0000000000000000000000000000000000D2
:0C32FC000000000025020000010200009C
:04000003000002B542
:00000001FF
