:1000000000000420B5020000DD020000410D0000E8
:10001000E1020000E3020000E50200000000000031
:10002000000000000000000000000000E7020000E7
:10003000E902000000000000EB020000ED020000F9
:1000400039260000EF02000049260000EF02000000
:10005000EF020000EF0200003D1E0000EF02000072
:10006000EF020000EF020000EF020000EF020000CC
:10007000EF020000EF020000EF020000EF020000BC
:10008000EF0200002D0D0000EF020000EF02000063
:10009000EF020000EF020000EF020000EF0200009C
:1000A000EF020000EF020000EF020000EF0200008C
:1000B000EF020000EF02000000000000000000005E
:1000C000EF020000EF020000EF020000EF0200006C
:1000D000EF020000EF020000EF020000EF0200005C
:1000E000EF020000EF020000EF020000000000003D
:1000F00000000000EF02000000000000EF0200001E
:1001000000000000000000000000000000000000EF
:1001100000000000000000000000000000000000DF
:1001200000000000000000000000000000000000CF
:1001300000000000000000000000000000000000BF
:1001400000000000000000000000000000000000AF
:10015000000000000000000000000000000000009F
:10016000000000000000000000000000000000008F
:10017000000000000000000000000000000000007F
:10018000000000000000000000000000000000006F
:10019000000000000000000000000000000000005F
:1001A000000000000000000000000000000000004F
:1001B000000000000000000000000000000000003F
:1001C000000000000000000000000000000000002F
:1001D000000000000000000000000000000000001F
:1001E000000000000000000000000000000000000F
:1001F00000000000000000000000000000000000FF
:1002000010B5054C237833B9044B13B10448AFF350
:1002100000800123237010BD880000200000000032
:100220003C41000008B5034B1BB103490348AFF341
:10023000008008BD000000008C0000203C41000050
:10024000154B002B08BF134B9D46A3F5803A0021A8
:100250008B460F461348144A121A03F063FB0F4BE8
:10026000002B00D098470E4B002B00D09847002061
:10027000002104000D000D48002802D00C48AFF307
:10028000008003F01DFB2000290003F0BDF903F0FE
:1002900003FB00BF00000800000004200000000075
:1002A000000000008800002024030020000000005F
:1002B000000000000649074A074B9B1A03DD043B78
:1002C000C858D050FBDC03F005FAFFF7B9FF000077
:1002D000704100000000002088000020FEE7FEE7DB
:1002E000FEE7FEE7FEE7FEE7FEE7FEE7FEE7FEE7E6
:1002F000C20730B403D483071ED430BC70474FF01C
:10030000A0430322C3F834274FF40055C3F838271D
:100310004FF48044C3F83C274FF40041C3F8402712
:100320004FF48032C3F80855C3F80845C3F80815E0
:10033000C3F808258307E0D54FF0A0430C22C3F88B
:100340002C27C3F83027C3F86027C3F8642730BCD4
:10035000704700BF30B482B001248DF80740144BC1
:100360009DF80750186044F20104A04259609A6059
:1003700013D044F20201884206D1DA60DA681288AA
:100380009A61DA685268DA6172B69DF80730002B1C
:10039000FBD162B602B030BC70471A611A6992682C
:1003A0005A611A6912689A611A695268DA61EBE750
:1003B000A400002000B583B002900091019244F2A5
:1003C000010071466A4600F003F803B000BD00BFAB
:1003D00072B6034B1B68DB0700D500BEFFF7BABF40
:1003E000F0ED00E0D0E90223D1E90201994208BF13
:1003F00090422CBF01200020704700BF2DE9F04F34
:100400002DED028B85B0064600F032FC40B1B14ABA
:10041000D2E9003113F1807341F10001C2E90031EA
:100420000021304600F054FCAB4D002840F02D81F7
:100430000121304600F04CFC002840F00E81A74816
:1004400003A900F01FFD78B3A54CDFF8A482A34FE9
:100450000BE0002B00F0D18003A9384600F042FDEC
:1004600003A9384600F00EFDF0B10378012B12D03D
:10047000022BEED120464FF0000901F0F1FA30B125
:1004800080F81C90204601F0EBFA0028F8D10123F7
:1004900088F80030E0E741682B68994200F0C3809B
:1004A000204601F0FDFAD7E7DFF834828D4FDFF800
:1004B000249208EE106A3BE0404601F0D1FA04466F
:1004C0003846A368E2680193009200F01BFC864E58
:1004D0008446D9E90001D6E9002310EB0C0041F174
:1004E0000001994208BF9042DDE9002303D210F1D8
:1004F000807041F10001B3EB000A62EB010BBAF12D
:10050000010F7BF100032EDBBAF5350F6FD2A26825
:100510004FF496030021384600F000FB00285ED01F
:100520000D2824D07149F52000F046FC00232B60F3
:10053000404601F0A5FA002800F087802B68002BC8
:10054000BAD02B68D0E90201D3E90223994208BF4F
:10055000904247D22B681B7F002BADD029684046C4
:1005600001F05CFAA8E70021384600F09BFB6369C4
:10057000002B4ED05E4B1B78002BD7D0237F002B57
:10058000D4D0384600F0BEFB8446D9E90001D6E954
:10059000002310EB0C0041F10001994208BF90428A
:1005A00044D3D4E90223994208BF904248D3236937
:1005B00003B92377D4E90530984721690029B5D0DC
:1005C000237F002BB2D0D4E90223521843F1000359
:1005D000C4E902232146404601F020FAA6E72B6831
:1005E000E3B12C6005B0BDEC028BBDE8F08F38465E
:1005F00000F088FB3F4A02448AE743681A7F002ADA
:100600007FF42AAF01221A774168204601F006FAEA
:1006100022E73649A22000F0CFFBABE718EE100A24
:1006200000F024FADDE700232B6015E7D4E902236C
:1006300010F1807041F10001994208BF9042B6D29A
:100640002146404601F0EAF970E72B68002BC9D13A
:1006500018EE100A00F01CFAC4E72248224C00F001
:1006600051FB1C4BD3E90089D4E9002318EB0008A7
:1006700049F10009994508BF904503D218F18078E7
:1006800049F10009C4E90089D9E62B68002B3FF441
:10069000CFAE304600F036FB2B689B68C01A20F0C6
:1006A0007F40B0F5960F0AD22C6863696BB1104B8E
:1006B0001B780BB1237FFBB900232B60B8E60B49F5
:1006C0004FF4957000F078FBEEE70849A22000F0A7
:1006D00073FBECE7C8000020480100202C0100203B
:1006E000983C00000000002040010020583C000021
:1006F000D0000020FFFFB4001B4800F003FB1B4AA2
:100700001B4BD2E90089D3E9002318EB000849F11B
:100710000009994508BF904503D218F1807849F146
:100720000009D4E90223994508BF904517D32369EE
:1007300003B92377D4E90530984721690029BBD054
:10074000237F002BB8D0D4E90223521843F10003D1
:10075000C4E902230748214601F060F9ACE70548E7
:10076000214601F05BF9A7E700000020C800002047
:1007700040010020983C000010B5134B13491B6842
:10078000134882B058220193082300F025FB044649
:1007900010B1204602B010BD0E4A0F4801A900F06A
:1007A000EFF804460028F4D10B48012100F04CFA80
:1007B00001231946094A084800F07CF9084B012238
:1007C00020461A7002B010BD943C0000D4000020F6
:1007D0002C010020FD03000000000020FFFF7F002F
:1007E000D000002070B50C461646054650B186B1C3
:1007F000A4F101042B68B4FA84F46409C3E9044643
:10080000002070BD064940F22E2000F0D5FA002EDF
:10081000EED1034940F22F2000F0CEFA072070BD40
:10082000583C0000F0B50D4683B01646044600283B
:1008300035D0237F13B1002003B0F0BDA6611C4862
:1008400000F060FA1B4B1C49D3E90023D1E9006793
:10085000121843F10003BB4208BFB24203D212F1A7
:10086000807243F100035219216943F10003C4E986
:10087000022301B12561114801A900F0C5FAA0B118
:1008800000254460057001A90C4800F0EBFA00282F
:10089000D2D0074800F03AFA284603B0F0BD084924
:1008A00040F23E2000F088FAC3E7042003B0F0BD18
:1008B00000000020C8000020400100202C01002082
:1008C000583C000030B5044683B0C8B100250F483D
:1008D000257701A900F098FA78B1012344600370EC
:1008E00001A90A4800F0BEFA08B903B030BD0848B3
:1008F00000F00CFA284603B030BD042003B030BD30
:1009000004494FF4157000F057FADFE72C0100207E
:1009100000000020583C000008B5EFF30583C3F346
:1009200008031BB9EFF31483DB0705D472B6054A3D
:1009300013680133136008BD0349432000F03CFAFB
:10094000F4E700BF4C010020A43C000008B5EFF321
:100950000583C3F308031BB9EFF31483DB0706D445
:10096000054A1368013B136003B962B608BD034929
:10097000512000F021FAF3E74C010020A43C0000D4
:100980002DE9F0410D4616460446002859D0002DA9
:100990004CD0002E50D063792D4F2E4907EBC30267
:1009A00041F823601379002B3DD12E88D4F80080C4
:1009B000B6F5805F31D2C8F80865AD7894F9046067
:1009C000072D25D8002E1BDB06F1604606F5614693
:1009D0006D01EDB286F8005394F904301E480121F0
:1009E00003F01F025B0901FA02F240F82320637949
:1009F00007EBC30247F8334011710020BDE8F081D6
:100A0000164B06F00F066D013344EDB21D76E3E799
:100A100013496B2000F0D0F9D4E712494FF4BE70AF
:100A200000F0CAF9C7E70820BDE8F0810E4956205A
:100A300000F0C2F9002EAED10B49572000F0BCF9EE
:100A4000A9E70949552000F0B7F9002DA1D1EDE73C
:100A5000500100205801002000E100E0FCEC00E023
:100A60004C3D00001C3D0000E43C000010B5044675
:100A700018B1236801221A6010BD0449872000F0D4
:100A80009BF9236801221A6010BD00BFE43C0000FE
:100A900010B5044618B1236801225A6010BD0449FC
:100AA0008D2000F089F9236801225A6010BD00BF33
:100AB000E43C00002DE9F0410D4684B09046044628
:100AC00018B320684FF48031A940C0F80813266895
:100AD00005F15000C6F848138000266880B2002750
:100AE000375005F5A87536582068039628F07F42E0
:100AF000039E40F825202268C2F8441313B12368EE
:100B0000C3F8041304B0BDE8F081034901939620B3
:100B100000F052F9019BD4E7E43C00002DE9F047D6
:100B20000D4682B0164699460446002874D001F15D
:100B30005007BF004FF4803822F07F46BFB208FA5A
:100B400001F82368C3F848832368C3F8088323683F
:100B500003EB8502D3F80415D2F84035C2F84015EE
:100B600022684FF0000A42F807A05B1AD25900929F
:100B700023F07F43012B009A41D02368D3F80475FA
:100B8000C3F84483F31B23F07F43012B05F5A875BD
:100B900025D0236843F825602068D0F80435DA436F
:100BA000C9F1FF19324409F57F4922F07F4291458E
:100BB00011D342B1C0F8448323680020C3F80483F2
:100BC00002B0BDE8F087013640F825602068D0F813
:100BD00004259342EED00D2002B0BDE8F0872068D6
:100BE000174B013640F8256043F001034FF4806055
:100BF00098472068D0F804359F42DBD0EBE7104BD4
:100C00004FF4806043F001039847236843F807A03E
:100C1000DB590193019BB0E70A49CD2005F150074C
:100C200000F0CAF8BF0007494FF48038B32026F01F
:100C30007F46BFB208FA05F800F0BEF881E700BFB2
:100C4000803D0000E43C000038B50D46044640B14C
:100C500022680223C2F8443315B12268C2F8043373
:100C600038BD0249A92000F0A7F8F1E7E43C0000F4
:100C700010B5044682B068B12368D3F8040138B1D6
:100C80000022C3F80421D3F804310193019B012011
:100C900002B010BD0249BA2000F08EF8ECE700BFA8
:100CA000E43C000038B54FF4803303FA01F5044604
:100CB00030B12368C3F848532368C3F8085338BDDC
:100CC0000249B32000F078F8F3E700BFE43C0000ED
:100CD00030B501F15004A40083B0A4B2054650B170
:100CE0002B68185928B100221A511B590193019BF6
:100CF000012003B030BD0249BA2000F05DF8EFE7F3
:100D0000E43C00000368D3F80405704790F9043010
:100D100005485A090121403203F01F0301FA03F389
:100D200040F82230704700BF00E100E0024A034B68
:100D300010681B68184700BF5001002058010020B0
:100D40001EF0040F1CBFEFF309800AE0EFF30880E8
:100D50000549064A884201D8904202D88D464FF094
:100D60000000034B184700000000042000E00320AF
:100D7000990D0000BFF34F8F0549064BCA6802F476
:100D8000E0621343CB60BFF34F8F00BFFDE700BFAE
:100D900000ED00E00400FA0508B5054A054B996A24
:100DA000DB6A1368DB0700D500BEFFF7E3FF08BD71
:100DB000F0ED00E000ED00E010B582B00B46044617
:100DC0006A46002144F20200ADF800400193FFF7AB
:100DD000FFFA02B010BD00BF99B110B4B2FBF3F43A
:100DE00003FB1424A4B244B9C0E9001484608281D6
:100DF000C38120465DF8044B704709205DF8044B21
:100E000070470E20704700BF30B482B050E8013FF9
:100E10009DB2C48925448489A54228BF2D1B04891D
:100E2000A54202BFBFF32F8F002207E0C5EA0305EA
:100E300040E80154002CE9D14FF001028DF8032065
:100E40000193019B9DF803200B602AB10B88006879
:100E5000184402B030BC704702F0FF03184602B0DD
:100E600030BC70470A884B889A4201D000207047F6
:100E700050E8012FC2EA024240E80123002BF7D1DB
:100E80000120704730B482B050E8023F1FFAA3F54A
:100E9000C488A54202BFBFF32F8F00220DE0C48992
:100EA00025448489A54228BF2D1BC3EA054540E897
:100EB0000254002CE8D14FF001028DF80320019379
:100EC000019B9DF803200B602AB14B8800681844F1
:100ED00002B030BC704702F0FF03184602B030BCCD
:100EE000704700BF0A884B889A4201D000207047A3
:100EF00050E8022FC2EA224240E80223002BF7D139
:100F00000120704710B4034653E8000F0A4643E837
:100F1000002494F0000FF7D15DF8044B704700BF38
:100F20002DE9F04788461646044600285DD000208B
:100F3000D4F80890FFF7F0FC226813685768BB42AA
:100F400002D9A268013217440020FF1AFFF7FEFC05
:100F500023681A685D6858686368AA429CBFA268E3
:100F60000132551BE268AE4202FB00301FD806FB7F
:100F700002F2414602F0C8FC2168A2684B68334483
:100F8000934296BF4A680026B6184E6022681368DE
:100F90005068834206D8C31A9168994200D2936080
:100FA000BDE8F087A16801310144CB1AF4E705FBE5
:100FB00002FA5246414602F0A7FCE2686068751BDF
:100FC00002FB05F208EB0A0102F09EFC2268A9EB85
:100FD00007039E425560D9D92268A16853688B42A5
:100FE00034BF013300231360D0E7034940F23320BC
:100FF000FFF7E2FE9BE700BF883D00002DE9F041CE
:101000000E4614460546F0B1BEB114B92046BDE8FF
:10101000F0810020FFF780FC2B7CE3B9AB689C4299
:1010200028BF1C46314628462246FFF779FF00209C
:10103000FFF78CFC2046BDE8F081124940F28B108E
:10104000FFF7BAFEE1E70F494FF4C570FFF7B4FEB2
:10105000002EDAD1F1E70020D5F80880FFF75CFC1C
:101060002A6813685768BB4202D9AA68013217443C
:10107000FF1A0020FFF76AFCA8EB07039C4228BF79
:101080001C46CFE7883D00002DE9F0410E4614468E
:101090000546002851D0002E49D014B92046BDE89D
:1010A000F0810020FFF738FC2B681A6858688242EC
:1010B00026D8821AD3F800801F685B68696894425A
:1010C00028BF14469F4288BFAB68EA6888BF0133D7
:1010D000DF1BBC4202FB081117D802FB04F23046AA
:1010E00002F012FCA9682A6804EB08038B4288BF4F
:1010F000002313600020FFF729FC2046BDE8F081A3
:10110000A968013101448A1AD4E707FB02F8424674
:10111000304602F0F9FBEA686968E71B06EB080055
:1011200002FB07F202F0F0FB2B681F60E2E70749C1
:1011300040F2F710FFF740FEAFE704494FF4FB70B1
:10114000FFF73AFE002EA8D1F1E700BF883D00006E
:1011500010B5044660B10020FFF7DEFB20680C22CA
:10116000002102F0DFFBBDE810400020FFF7EEBBDE
:1011700002494FF40470FFF71FFEECE7883D0000C2
:1011800010B5044638B1236818685B68C01AB0FA15
:1011900080F0400910BD034940F22B20FFF70CFE00
:1011A000F1E700BF883D000001230370704700BFD6
:1011B0002DE9F0410678012E0C4604D0022E3BD0DA
:1011C000BEB1BDE8F0814B69027A1B6841685B687B
:1011D00005461868FFF712FF2B7A834236D96369F8
:1011E0001B68DB68002BECD020460321BDE8F041F2
:1011F00018474B691B685968DA684F689D6812B1D7
:101200003146204690472A7A29683846FFF73CFF46
:101210000028D6D0214A23782968D35CC2B2002B9B
:1012200037D0201D02F05AF80028CAD0BDE8F0419E
:101230001B49B520FFF7C0BD4B691B68DB68002B5D
:10124000BFD031462046BDE8F041184733B163694D
:101250001B68DA6822B131462046904763691B68F3
:101260000E4922789B68885C59685A7A50B1201DD3
:1012700002F0D2F80028A4D0BDE8F04108499E2031
:10128000FFF79ABD04F10C0001F0F8FC002898D09B
:10129000F2E704F10C0001F055FCC5E72003002043
:1012A000C43D000070B50E4688B0154604460028BF
:1012B0006DD000296BD0002A69D063691B68002BB0
:1012C0006DD12B782BB16B68002B7AD0AB68002BDB
:1012D00077D031462022684602F016FB2B783E4A32
:1012E0000494A3F10206002BB6FA86F64FEA5616CE
:1012F000694608BF002220468DF81D6000F0BAFC48
:101300000646002840D163691D6063691A68526807
:101310004AB15068FFF71CFF63691B685B68186877
:10132000FFF716FF636900229A60BFF35F8F63695E
:101330005A60BFF35F8F009B626903210133117311
:1013400004D16269137B23F002031373019B013301
:101350003CD06369214D1B681A78022A0AD0237891
:10136000EB5C43BB04F10C0001F05EFD63691B689C
:101370001A784AB122789B68A85C59685A7A90B169
:10138000201D02F049F80646304608B070BD1449E9
:10139000C220FFF711FD63691B68002B91D08526E1
:1013A000304608B070BD04F10C0001F067FC064641
:1013B000304608B070BD0B4940F25A20FFF7FCFCE4
:1013C000D4E70749CC20FFF7F7FC82E76269137B7B
:1013D00023F001031373D7E7B111000020030020AD
:1013E000C43D0000003E00002DE9F04F85B0CDE97E
:1013F00000230E460546002800F0E880686903686F
:10140000002B00F0ED80027B910740F1DA80009A1A
:10141000002A00F0948006F06042B2F1005F03D031
:101420001B78022B00F0048101210430FFF76AFDD4
:101430000446BFF35F8F002840F0D7800E9B8DF8E5
:101440000C405A1C40F097806B69009F1B68DFF8C6
:10145000F0A11A7805F10C0B002A3ED0D3E901293E
:10146000D2F8048031463A464046FFF7C7FD2B7854
:101470001AF803300446002B66D0281D01F0BEFF89
:10148000B8B9404699F80820D9F80010FFF7FCFDDC
:10149000804600286AD02B78D9F800101AF803305B
:1014A0005FFA88F2002B57D0281D01F017FF0028A3
:1014B00057D1B7EB0408264426D06B691B681A780D
:1014C00012B11B6903B198479DF80C30E3B96B6901
:1014D0001B681A784746002AC0D12B78FF2F1AF8CC
:1014E00003303C4628BFFF242246314683B3281DE3
:1014F00001F0F4FE0028DCD04E496920FFF75CFCC7
:10150000B7EB04082644D8D1019B1BB1009A2244B2
:10151000D71B1F609DF80C3033B90E9B013303D0ED
:10152000AB691868FFF7CEF96C696368012B3CD191
:10153000BFF35F8F00236360B8F1000F2FD1002449
:10154000204605B0BDE8F08F584601F08BFB97E7C9
:10155000584601F0F7FACDE7584601F0F3FA0028B3
:10156000A7D034497A20FFF727FCA2E73149782039
:10157000FFF722FC8FE71A464FF47A704FF40043CE
:101580000021E3FB02014FF4FA62002302F0DCF9D0
:10159000042807462BD801238DF80C3054E79DF81A
:1015A0000C30002BCBD00D24CAE723499320FFF742
:1015B00003FCBFF35F8F00236360B8F1000FBED060
:1015C000EDE70824204605B0BDE8F08F40F24F104B
:1015D0001849FFF7F1FB68690368002B7FF413AF2C
:1015E0008024204605B0BDE8F08F1124A8E7D5F887
:1015F0001880124A21464046FFF7F4F8044660B1CD
:101600006D696B68012B03D00B499320FFF7D4FB66
:10161000BFF35F8F00236B6092E7D8F80000394674
:1016200003AAFFF7FFF8044600283FF40DAFE7E7F1
:10163000102485E7C43D00003C3E0000A9110000D5
:10164000200300202DE9F04F87B0CDE90223884622
:101650000546002800F0D58068690368002B00F07B
:10166000DA80037BD90740F1C780029B23B90024AD
:10167000204607B0BDE8F08F01210830FFF742FC9B
:101680000446BFF35F8F002840F0D780109B8DF891
:1016900014005A1C40F090806B69029E1B681A78F7
:1016A00005F10C0B02B35B68324618684146FFF740
:1016B000EBFC08EB0003044601933746361BDDF8CC
:1016C00004804BD09DF81430002B40F0A9806B694A
:1016D0001B681A7842B119690029E3D088476B6901
:1016E0001B681A78002ADED1FF2E344628BFFF245B
:1016F00008EB04032746019305F1040A13E001F007
:1017000061FF0346012249465046F3B1002FD4D071
:1017100095F800C05C4B13F80C30002B40D001F062
:101720007BFE90B9013F2B78574AD25C019B504613
:10173000A3EB0709002AE2D1584601F06DFB0346EE
:10174000012249465046002BE0D1E41B08EB04037C
:1017500001933746361BDDF80480B3D1039B1BB1E0
:10176000029A2244D41B1C609DF8143033B9109B9C
:10177000013303D0EB691868FFF7A4F86C69A3681C
:10178000012B2DD1BFF35F8F0023A360002E3FF408
:101790006EAF9DF81430002B3FF469AF0D2467E75E
:1017A00001224946584601F069FA0028BAD0E41BE4
:1017B00008EB04030193CCE71A464FF47A704FF418
:1017C00000430021E3FB02014FF4FA62002302F020
:1017D000BBF80428064632D801238DF814305BE7A5
:1017E0002A499320FFF7E8FABFF35F8F0023A36035
:1017F000002E3FF43CAFCCE70824204607B0BDE8FC
:10180000F08F4FF4D3702249FFF7D6FA6869036866
:10181000002B7FF426AF8024204607B0BDE8F08F70
:101820006B691B681B78002B98D0174A2B78D35C08
:1018300023B3281D01F0CEFE90E7112418E7EF69CD
:10184000144A21463846FEF7CDFF044660B16D6963
:10185000AB68012B03D00D499320FFF7ADFABFF31E
:101860005F8F0023AB6003E73868314605AAFEF7B7
:10187000D9FF044600283FF40FAFE8E705F10C005C
:1018800001F0F8FA6AE700BF200300203C3E0000A8
:10189000C43D0000A91100002DE9F0430E4683B0BD
:1018A000044600287ED060690368002B00F0848025
:1018B000027B920771D51B7823B90025284603B017
:1018C000BDE8F08301210430FFF71CFB0546BFF3A0
:1018D0005F8F002877D1731C8DF804003FD1DFF8AB
:1018E000388104F10C09271D0AE063691B681A7826
:1018F00012B11B6903B198479DF80430002B60D1E9
:1019000063691B685B685868FFF73AFC0546002866
:10191000EBD0237818F803303846E3B101F06EFDC0
:101920000028E2D19DF804302BB9013603D0A36919
:101930001868FEF7C7FF64696368012B22D1BFF303
:101940005F8F00236360002DB7D19DF80430002B1A
:10195000B3D00D25B2E7484601F084F9E0E74FF433
:1019600000434FF47A700021E3FB06014FF4FA6262
:10197000002301F0E9FF0428074626D801238DF84B
:101980000430ACE721499320FFF716FABFF35F8FCD
:1019900000236360002D90D1D7E70825284603B0C7
:1019A000BDE8F08340F2FD101949FFF705FA6069C0
:1019B0000368002B7FF47CAF8025284603B0BDE888
:1019C000F0830025AEE7112578E7D4F81880114A96
:1019D00029464046FEF706FF054660B16469636824
:1019E000012B03D009499320FFF7E6F9BFF35F8F7E
:1019F0000023636062E7D8F80000394601AAFEF7C9
:101A000011FF054600283FF46AAFE7E73C3E0000BF
:101A1000C43D0000A91100002003002070B50D4650
:101A2000064680B1ADB17468206818B908E0246832
:101A3000206828B1B368294698470028F7D1206864
:101A40002860256070BD05493A20FFF7B5F9002DE3
:101A5000E9D102493B20FFF7AFF9E4E7743E00000B
:101A600010B5044628B16368186808B102681A60A6
:101A700010BD02495120FFF79FF9F4E7743E0000C2
:101A800010B5044610B16368186810BD03495D20A5
:101A9000FFF792F96368186810BD00BF743E00003C
:101AA00038B50C460546B8B164B16A6813681BB90D
:101AB00010E01A461B686BB19C42FAD12368136090
:101AC000012038BD07496A20FFF776F96B681B686B
:101AD000002BEED1002038BD02496920FFF76CF9D8
:101AE000E2E700BF743E000010B568B90E4CA36871
:101AF000012262703BB1D3E900230020A260984725
:101B0000A368002BF7D110BD0128FCD1064C236936
:101B1000A070002BF7D0D3E9002301202261984761
:101B20002369002BF7D110BD5C01002010B50B4CD0
:101B3000237882B013B1852002B010BD08486360DD
:101B4000A3602361E36000F0E5F8019000F0F8F88D
:101B500001980123237002B010BD00BF5C0100207A
:101B6000E91A000038B51D4D2B7804464BB3AB780D
:101B700003F0FF007BB114B1636801209847002097
:101B8000FEF7CAFEEB6800200133EB60FEF7DEFED5
:101B9000EB68DBB138BDFEF7BFFE64B12A6942B124
:101BA000944208D0134601E09C4204D01B68002BED
:101BB000FAD122602C61EB68002BE3D100F0E6F84B
:101BC000E0E70749E920FFF7F7F8D0E7BDE838403C
:101BD000034940F20510FFF7EFB800BF5C01002099
:101BE000B43E000010B5074C23784BB9064B0028D3
:101BF00008BF184600F04CFC08B90123237010BD43
:101C0000852010BD70010020F03E000030B585B089
:101C1000047845688DF80040D0E90240064A074B39
:101C2000039053F82130019552F821108DF80840A7
:101C30006846984705B030BD740100207C01002043
:101C400030B585B0047845688DF80040D0E9024091
:101C5000064A074B039053F82130019552F82110A2
:101C60008DF808406846984705B030BD74010020E3
:101C70007C0100202DE9F0410C4690F800801F4BBC
:101C80001F4943F828200746B8F1010F206941F8A1
:101C90002800637F88B0164628D0DFF874C00CF89F
:101CA00008300FCC6D460FC594E80F003C781CF847
:101CB000044085E80F00CDF810805CB1002E114A79
:101CC000694607F1040008BF324601F091F908B0F7
:101CD000BDE8F081002E0C4A694607F10C0008BFF0
:101CE000324600F0CFFD08B0BDE8F081002BD4D122
:101CF00006497620FFF760F8637FCEE77C0100207D
:101D0000740100200D1C0000411C0000F43E000086
:101D10002003002010B5044640B1074A107918B9D5
:101D200001211460918010BD852010BD0349A420BD
:101D3000FFF742F8F1E700BF84010020303F0000C8
:101D400008B50E4B1B795BB10D4B1A68D2070FD546
:101D50000C4A4FF080410123C1F81835137008BDBB
:101D60000949BD20FFF728F8054B1A68D207EFD4C0
:101D7000C021012283F800131A60E9E784010020E2
:101D800000E100E022030020303F000010B50C4BC2
:101D90001B7982B07BB10B4B0B4A002119601B6889
:101DA0000193019C4FF0804102200123C1F80403FC
:101DB000136002B010BD0549EA20FEF7FDFFEAE717
:101DC000840100200401004008000040303F000072
:101DD00010B5174B1A6882B062B10021154A19601C
:101DE0001B68507900934FF080410123009CC1F89B
:101DF000083398B1104B1A68BAB100221A601B68F8
:101E000001934FF0804202210A4B0198C2F8081357
:101E10001B68012002B0BDE81040184711685371DB
:101E20008847054B1A68002AE7D102B010BD00BFF1
:101E30000001004084010020040100402DE9F04F22
:101E400000238BB0CDE90433CD4A1168012900F09D
:101E500089821E46CB4B1A68012A00F07582CA4B54
:101E60001A68012A00F06282C84B1A68012A00F041
:101E70004F82C74B1A68012A00F03C82C54B1A6892
:101E8000012A00F02982C44B1A68012A00F0168248
:101E9000C24B1A68012A00F0F081C14B1A68012A6E
:101EA00003D09EB90BB0BDE8F08F00221A601B680A
:101EB00003934FF0A042039BD2F81025B94B049234
:101EC000D3F810350593F6B146F00046B64F01251C
:101ED0000024A30003F180432E4203F5C0434FEAE0
:101EE00045050BD0D3F8100557F82420D3F810156A
:101EF000C0F30520C1F3014102B190470134082C21
:101F0000E7D1002ECEDAA84CDFF898920DF1180830
:101F10000023C8F80430069394F960304FF0FF3086
:101F20004FF0FF315D1CCDE9080100F0FA800AAAEC
:101F3000C3F3C20102EB010B03F007001BF8082CEE
:101F40000127874012EA07055FFA83FA03F03F068C
:101F500023D0A3194FEA9A1293F9303054F8233062
:101F6000002B00F08181032A00F081812F2E00F2E6
:101F7000FA801F2E00F2008131464FF0A04A0AEB92
:101F8000810A1BF8185CDAF800173D40C1F30141E3
:101F900040F0DC80032900F01B8294F96130581C6A
:101FA00034D00AAAC3F3C20102EB010B03F007000D
:101FB0001BF8082C012787403A425FFA83FA03F0A6
:101FC0003F0623D0A3194FEA9A1293F9303054F800
:101FD0002330002B00F03681032A00F036812F2EAB
:101FE00000F20D811F2E00F2138131464FF0A04AFE
:101FF0000AEB810A1BF8180CDAF800173842C1F313
:10200000014140F0D580032900F0CD8194F9623080
:10201000591C34D00AAAC3F3C20102EB010B03F02E
:1020200007001BF8082C012787403A425FFA83FA21
:1020300003F03F0623D0A3194FEA9A1293F93030E8
:1020400054F82330002B00F00681032A00F00681AB
:102050002F2E00F2C7801F2E00F2CD8031464FF0A8
:10206000A04A0AEB810A1BF8180CDAF8001738426C
:10207000C1F3014140F0A980032900F07F8194F968
:1020800063305A1C32D00AAAC3F3C20102EB010B1F
:1020900003F007001BF8082C012787403A425FFA3B
:1020A00083FA03F03F0621D0A2194FEA9A1392F95E
:1020B000302054F82220002A00F0BB80032B00F0CF
:1020C000BB802F2E00F2A8801F2E00F2AE80B246F9
:1020D0004FF0A04101EB8A0A1BF8180CDAF8001740
:1020E0003842C1F301412AD103291CD0002D3FF40D
:1020F000D9AE4FF0A0430499D3F81035D9F8102584
:10210000994203D1059991423FF4CCAEDDE9060135
:10211000CDE9043294F960305D1CCDE908017FF40B
:1021200006AF002539E7032B00F06681002ADDD0D9
:10213000194630469047002D3FF4B4AED9E7022946
:10214000D4D1032BF2D14FF4403757E10229E8D123
:10215000032A00F06C810025002B3FF41EAF1146CE
:102160003046984719E7114940F2CD10CDE90032C9
:10217000FEF722FEDDE900320AF01F01CA46FEE644
:102180000061004004610040086100400C610040B3
:102190001061004014610040186100401C61004063
:1021A0007C6100400003005090010020A43F00002B
:1021B00002297FF42BAF032A00F03681002B3FF475
:1021C00025AF11463046984720E702297FF457AFE4
:1021D000032A00F02681002B3FF451AF1146304610
:1021E00098474CE7A74940F2CD10CDE90023FEF710
:1021F000E3FDDDE900230AF01F01CA4631E7A149EA
:1022000040F2CD10CDE90032FEF7D6FDDDE9003217
:102210000AF01F01CA46EBE69A4940F2CD10CDE91B
:102220000032FEF7C9FDDDE900320AF01F0A494617
:1022300050E7032B7FF45AAF18F80100384308F831
:1022400001003EE7032A7FF4E1AE18F801003843AD
:1022500008F80100C3E6032A7FF411AF18F8010063
:10226000384308F80100F3E6032A7FF45AAF18F860
:102270000100384308F8010078E6834AD2F80423C5
:1022800017067FF50AAE00221A6019680291196ECE
:102290000298012903F1600346F080067FF416AE30
:1022A0001A601B6803934FF0A042039BD2F81025DD
:1022B000764B0492D3F81035059305E6724AD2F8AE
:1022C000042352067FF5E4AD00221A601B680293D6
:1022D000029B46F04006DBE56B4AD2F804239106E8
:1022E0007FF5D1AD00221A601B680293029B46F075
:1022F0002006C8E5644AD2F80423D0067FF5BEADB7
:1023000000221A601B680293029B46F01006B5E596
:102310005D4AD2F8042314077FF5ABAD00221A60A2
:102320001B680293029B46F00806A2E5564AD2F8C3
:10233000042355077FF598AD00221A601B680293AD
:10234000029B46F004068FE54F4AD2F80423970714
:102350007FF585AD00221A601B680293029B46F050
:1023600002067CE54849D1F8046316F001063FF403
:1023700071AD136013680293029B6BE5032A7FF42F
:102380002AAF4FF400372F2E5ED8DAF8001721F469
:102390004031CAF80017DAF8001701353943EDB2B9
:1023A000CAF8001717E7032A7FF408AF4FF4003785
:1023B0002F2E5DD8DAF8001721F44031CAF8001743
:1023C000DAF8001701353943EDB2CAF80017F5E61F
:1023D000032A7FF4C1AE4FF400352F2E3ED8DAF831
:1023E000001721F44031CAF80017DAF80017294322
:1023F000CAF800170125AFE64FF400372F2E19D881
:10240000DAF8001721F44031CAF80017DAF800179B
:1024100001353943EDB2CAF80017002A7FF488AEBF
:1024200067E64FF44037AEE74FF44037C0E74FF46C
:102430004035D2E7134940F2CD10CDE90032FEF726
:10244000BBFCDDE90032DBE70E4940F2CD10CDE9FF
:102450000023FEF7B1FCDDE9002396E7094940F2CD
:10246000CD10CDE90032FEF7A7FCDDE90032B6E77A
:10247000044940F2CD10CDE90032FEF79DFCDDE9C4
:10248000003297E7A43F00000060004000030050C6
:1024900010B50446F0B1124A1378CBB9237811482D
:1024A0004FF08041C3F34003C1F88035237803F037
:1024B0000103C1F878350368DB0703D501231370E6
:1024C000002010BDC021012380F800130360F5E750
:1024D000852010BD04497020FEF76EFCDBE700BFCD
:1024E0002303002000E100E0D43F000030B54FF0AE
:1024F000804387B0D3F8044362070ED5D3F8082190
:1025000003F584734AB10022424D1A601A682B68A1
:102510000092009A002B76D09847A5060DD53E4B29
:102520001A6852B100223D4D1A601A682B68019258
:10253000019A002B60D00020984760060DD5384BDB
:102540001A6852B10022354D1A601A682B6802923F
:10255000029A002B49D00120984721060DD5314B16
:102560001A6852B10022304D1A601A682B68039223
:10257000039A002B32D000209847E2050CD52B4B54
:102580001A684AB10022284D1A601A682B68049212
:10259000049AE3B101209847A3050FD5244B1A688C
:1025A00062B10022204C1A601A6823680592059ACD
:1025B00033B1022007B0BDE83040184707B030BD46
:1025C0001C4940F23D10FEF7F7FB2368F1E719497B
:1025D0004FF49B70FEF7F0FB2B68DBE7154940F2E8
:1025E0002F10FEF7E9FB2B68C5E712494FF49370F3
:1025F000FEF7E2FB2B68AEE70E4940F21F10FEF734
:10260000DBFB2B6897E70B494FF48B70FEF7D4FB8D
:102610002B6881E7FC01002014010040000200202B
:10262000180100401C01004004020020200100406D
:1026300024010040D43F000008B5FFF757FFBDE874
:102640000840FFF7C5BB00BF10B5074C236813B1A6
:10265000BDE81040184705495120FEF7ADFB23683F
:10266000BDE81040184700BF080200200C400000E1
:1026700038B50446C0B10F4B984213D100200D4627
:10268000FEF74AF90C4B1C7924B10020FEF75EF9E5
:10269000112038BD012220461D601A71FEF756F93F
:1026A000204638BD002038BD04497720FEF784FB62
:1026B000204638BD00200040080200200C400000E9
:1026C00030B56E4AD2F8043399058BB068D5D2F88C
:1026D0002431002B64D00023C2F82431D2F82431F5
:1026E00001934FF40171664B0198C2F8081393F8F7
:1026F000291009B901215160604902228DF8182082
:10270000D1F88024C1F880249869D96809920024FE
:102710000025CDE90710C3E90645D3E9001206A854
:102720009047564AD2F81C31C3B1554B5869196AC3
:1027300088426AD993F8281001F0FF00002964D17B
:10274000C2F81C01D2F81C11039103999C68186A05
:10275000196A205C01311962C2F81C05474AD2F897
:102760004431DBB10021464BC2F84411D2F8440198
:1027700093F829100090009809B1012111609A691D
:1027800062B1586AD96800229A610122CDE9071026
:102790008DF8182006A8D3E9001290470BB030BD81
:1027A000364AD2F804335B07BBD5D2F80831002B88
:1027B000B7D0334B996900293ED00021C2F80811E7
:1027C000D2F8081104910499D868596AD2F81825EA
:1027D00042545A6A996901325A625A6A8A42A0D1AD
:1027E000DA69002A31D0DD685C6A18699A610121D2
:1027F0000022D860DA615A628DF81810CDE90754CA
:10280000D3E9001206A890478BE71C4A0021C2F8C2
:102810001C11D2F81C210292029A5A69002A9DD0FA
:1028200058699A688DF8181008905961079206A89F
:10283000D3E90012904791E7C2F80811D2F80801D5
:1028400005900598D2F81825C7E793F8292012B902
:102850000A4A01215160094A4FF40171C2F8081374
:10286000596ADA6808910024012007928DF818004F
:10287000D3E900129C6106A8904752E7002000406F
:10288000100200202DE9F047054684B090460C4622
:10289000002900F0E3802E79DFF8A4922C2303FBBB
:1028A000069393F82A30002B40F0B1809C492868A9
:1028B000FFF7DEFE0746002840F0A480D4F800A011
:1028C000BAF1FF3F1FD0BAF12F0F00F2BE80BAF16C
:1028D0001F0F00F2BF804FF0A042012303FA0AF35A
:1028E000C2F80835D4F800A0BAF12F0F00F2F28038
:1028F000BAF11F0F00F2F3804FF0A0430AF5E07A1F
:10290000032243F82A20D4F804A0BAF1FF3F0ED0E6
:10291000BAF12F0F00F28B80BAF11F0F00F28C80FA
:102920004FF0A0430AF5E07A002243F82A202B68F2
:10293000A269C3F82425217D637D2A680B43C2F870
:102940006C35D4E900122B68C3F81425C3F80C15B4
:10295000237D012B00F087802C2303FB06F309EB7A
:102960000302C2F80480226949F80320B8F1000F7D
:1029700034D02B6894F81C806A490022C3F81C21CB
:10298000D3F81C3102932B680298C3F84421D3F882
:1029900044212B680392039AC3F804132C68B8F1FE
:1029A000070F4FEA143A44F3073449D8002C33DBBD
:1029B00004F1604303F561434FEA48185FFA88F871
:1029C00083F800832B68584843F307325209C3F356
:1029D0000433012101FA03F340F8223029682C2343
:1029E00003FB069604200023C1F8000501223846A7
:1029F000C6E9063386F82A2086F82930736104B0C8
:102A0000BDE8F0871127384604B0BDE8F0870827F5
:102A1000384604B0BDE8F087444B0AF00F0A4FEA8D
:102A2000481853445FFA88F883F81880CAE7404989
:102A300040F2CD10FEF7C0F93E4B0AF01F0A71E7D5
:102A40003D496B20FEF7B8F9B0E7394940F2CD10A7
:102A5000FEF7B2F9374A0AF01F0A3EE73749AA20C3
:102A6000FEF7AAF917E7D4F808A0BAF1FF3F0CD097
:102A7000BAF12F0F42D8BAF11F0F44D84FF0A0423D
:102A80000AF5E07A002342F82A30E3685A1C1AD08B
:102A90002F2B28D81F2B2DD84FF0A041012202FA4E
:102AA00003F3C1F80835D4F80CA0BAF12F0F2ED8D3
:102AB000BAF11F0F30D84FF0A0430AF5E07A032295
:102AC00043F82A20E3682A68A168C2F80835C2F8EA
:102AD000101541E7164940F2CD10FEF76DF9154B80
:102AE0000AF01F0A0AE71249019340F2CD10FEF7DF
:102AF00063F9019B0F4903F01F03CFE70C4940F234
:102B0000CD10FEF759F90B4A0AF01F0AB8E7084939
:102B100040F2CD10FEF750F9064B0AF01F0ACCE741
:102B2000C12600008000020000E100E0FCEC00E0B3
:102B3000A43F0000000300504C3D0000484000004E
:102B4000100200202DE9F041444D06792C2303FBAF
:102B5000065384B093F82A30012B04460F46904662
:102B600033D1002F74D0B8F1000F36D020792C2348
:102B700003FB0050406900285DD103FB065301218F
:102B8000C3F814809F60186283F828002268C2F896
:102B90001C01D2F81C7122680297029F9160226882
:102BA000D3F808C0C2F81C01D2F81C110191019998
:102BB0001F6A196A1CF8077001311962C2F81C7586
:102BC0005A6882B104B0BDE8F08125494FF48C7099
:102BD000FEF7F2F8002FC6D13AE021494FF48D708C
:102BE000FEF7EAF8C2E75F691A6A216897421BD9C3
:102BF000864602E093F828200ABBD1F81C21002A5F
:102C0000F8D0C1F81CE1D1F81C210392039AD3F843
:102C100020801A6A1CF8088001321A62C1F81C85EB
:102C20001A6A9742E9D82168D1F81C31002BFBD0F1
:102C30000123CB6004E0112004B0BDE8F0810F2037
:102C40002C2303FB065500236B6104B0BDE8F08123
:102C5000034940F21910FEF7AFF884E71002002094
:102C6000484000000379044A2C2101FB03235869E2
:102C7000003818BF01207047100200202DE9F041F4
:102C8000634E05792C2303FB056386B093F82A3045
:102C9000012B04468846174663D1B8F1000F00F0B7
:102CA000A380002F66D02C2303FB0563596821B154
:102CB00023684FF40172C3F808232C2303FB056338
:102CC0009A69A2B1DA69002A40F09480C3F81080B2
:102CD000DF612C2303FB05635A6842B323684FF47A
:102CE0000172C3F80423002006B0BDE8F08193F818
:102CF00029109F61C3F80C805A62DA610029E8D17B
:102D00002368C3F82411D3F8242123680192019A7F
:102D1000C3F80811D3F8082123680292012202990E
:102D20001A602C2303FB05635A68002AD6D1216858
:102D3000C1F84421D1F844210392039A2268D2F8C1
:102D40002411D2F80871D2F84401CFB9002842D139
:102D50000029F4D02C2303FB05650023AB6103207D
:102D6000C2E72C494FF4B670FEF726F8B8F1000F11
:102D700097D139E027494FF4B770FEF71DF892E775
:102D80000029E7D148BB9969C2F8080181B1D2F89E
:102D9000081104910499DF68596AD2F818257A5409
:102DA0005A6A996901325A625A6A9142C6D806E053
:102DB000D2F8081105910599D2F818255B6A2C23E1
:102DC00003FB0565002295F82930AA61D3B1236879
:102DD00001221A6088E70029BCD12C2303FB05657A
:102DE0000023AB610F207FE70A4940F26D10FDF729
:102DF000E3FF56E751B123684FF40172C3F804238F
:102E0000112071E7236801225A606DE711206BE7FA
:102E100010020020484000000368D3F80801003881
:102E200018BF0120704700BF114A03792C2101FB14
:102E3000032393F82930D3B930B4046882B0C4F8BE
:102E40002431D4F8245104680095009DC4F8083159
:102E5000D4F80841036801940124019D1C600379A2
:102E600001FB032282F8294002B030BC7047704752
:102E70001002002003684FF40172C3F808230368AE
:102E800001225A60704700BF30B5574BD3F8242158
:102E90008BB0002A75D00022C3F82421D3F8242156
:102EA000049202228DF81820049AD3F880144F4A15
:102EB000C3F880140991D3F83C15D3680891002415
:102EC00000250793C2E906451168536806A898478C
:102ED000454BD3F8442152B10021444AC3F8441170
:102EE000D3F84401916903900398002938D13E4BEF
:102EF000D3F820215AB10021C3F82011D3F82021A2
:102F000002920120394A029CD8605069D8B9364BE8
:102F1000D3F85821AAB10021C3F85811D3F85801A9
:102F2000324A01900198506958B1D3F84C05936822
:102F300008908DF818105161079306A8D2E9001384
:102F400098470BB030BDD3F84C05936808908DF8C6
:102F500018105161079306A8D2E900139847D6E7E5
:102F6000D3F83C35D168089300240025012307914C
:102F70008DF81830C2E90645D2E9001306A8984733
:102F8000B5E7D3F810110029A2D0C3F81021D3F867
:102F900010111648059105998469D3F83C15A14292
:102FA00096D1C469A4B1D3F80052846125F02005FC
:102FB000C3F80052D0E90343C26101220891C36003
:102FC0000168436807948DF8182006A898477FE7A2
:102FD000C26884610123CDE907218DF81830D0E95A
:102FE000001306A8984773E7002000404002002025
:102FF0002DE9F04F054689B091460C46002900F0B6
:10300000F9802F79AC4E07EBC70306EB83034FEA39
:10301000C70A93F82030002B40F0C480A7492868E5
:10302000FFF726FB8046002840F0B680D4F800B0B9
:10303000BBF1FF3F1FD0BBF12F0F00F2D280BBF1DD
:103040001F0F00F2D3804FF0A042012303FA0BF3CD
:10305000C2F80835D4F800B0BBF12F0F00F206819A
:10306000BBF11F0F00F207814FF0A0430BF5E07B8F
:10307000032243F82B20D4F804B0BBF1FF3F0ED05D
:10308000BBF12F0F00F29F80BBF11F0F00F2A08059
:103090004FF0A0430BF5E07B002243F82B202B6878
:1030A000A269C3F82425217D637D2A680B43C2F8F9
:1030B0006C35D4E900212B68C3F80C25C3F814152E
:1030C000237D012B00F09B800AEB070306EB8302B4
:1030D000C2F80490226946F82320B9F1000F49D0C4
:1030E0002A6894F81C9076490023C2F81031D2F86F
:1030F000102103922A680398C2F82031D2F82021C7
:1031000004922A680498C2F82431D2F82421059246
:103110002A680598C2F84431D2F8442106922A68F8
:103120000698C2F85831D2F858212B680792079AAE
:10313000C3F804132C68B9F1070F4FEA143B44F3AA
:10314000073449D8002C33DB04F1604303F56143B5
:103150004FEA49195FFA89F983F800932B685948B7
:1031600043F307325209C3F30433012101FA03F395
:1031700040F82230574406EB87062A6801200023D6
:10318000082186F820004046C2F80015C6E906333B
:10319000736109B0BDE8F08F4FF01108404609B0E7
:1031A000BDE8F08F4FF00808404609B0BDE8F08F49
:1031B000454B0BF00F0B4FEA49195B445FFA89F955
:1031C00083F81890CAE7414940F2CD10FDF7F4FDAD
:1031D0003F4B0BF01F0B5DE73E496B20FDF7ECFD0D
:1031E000B0E73A4940F2CD10FDF7E6FD384A0BF062
:1031F0001F0B2AE73849CF20FDF7DEFD01E7D4F8A1
:1032000008B0BBF1FF3F0CD0BBF12F0F42D8BBF190
:103210001F0F44D84FF0A0420BF5E07B002342F88B
:103220002B30E3685A1C1AD02F2B28D81F2B2DD8EF
:103230004FF0A041012202FA03F3C1F80835D4F897
:103240000CB0BBF12F0F2ED8BBF11F0F30D84FF0B1
:10325000A0430BF5E07B032243F82B20E3682A68A8
:10326000A168C2F80835C2F810152DE7174940F2D9
:10327000CD10FDF7A1FD164B0BF01F0BF6E6134921
:10328000019340F2CD10FDF797FD019B104903F02B
:103290001F03CFE70D4940F2CD10FDF78DFD0C4A1D
:1032A0000BF01F0BB8E7094940F2CD10FDF784FD84
:1032B000074B0BF01F0BCCE740020020892E0000CB
:1032C0001003420000E100E0FCEC00E0A43F00003D
:1032D000000300504C3D0000804000002DE9F04309
:1032E0000779DFF8148107EBC70308EB830383B08A
:1032F00093F82030012B04460D4616464FEAC709C5
:103300003CD1002D4FD0002E44D0237913B9B6F50F
:10331000803F04D337494FF49870FDF74DFD05F019
:103320006043B3F1005F31D1237903EBC30308EBB2
:1033300083035869002856D109EB070308EB830380
:1033400001215E619D602268C2F82001D2F82061EF
:1033500022680196019EC2F85801D2F858210092C5
:103360002268009E5E69C2F84455C2F8486522682A
:1033700091605B68EBB103B0BDE8F0831D4940F29A
:103380002D10FDF719FD002DBDD10CE0102003B06C
:10339000BDE8F083174940F22F10FDF70DFD2379AA
:1033A000002BBCD0B6E713494FF49770FDF704FD2E
:1033B000A9E7236800E0D0B9D3F82021D3F8580159
:1033C000002AF8D098B90122DA602268D2F8583180
:1033D000002BFBD04F4408EB87080023C8F81430BB
:1033E00003B0BDE8F083112003B0BDE8F0830F20E7
:1033F000F0E700BF80400000400200200379054A4A
:1034000003EBC30302EB83035869003818BF0120A4
:10341000704700BF400200202DE9F04390F804807F
:10342000DFF89C9108EBC80309EB830383B093F8A2
:103430002030012B04460E4617464FEAC80550D1EE
:10344000002E00F08380002F77D0237913B9B7F5D1
:10345000803F04D3594940F28310FDF7ADFC06F0DC
:103460006043B3F1005F64D105EB080309EB83030C
:10347000596821B123684FF40472C3F8082305EB9F
:10348000080309EB83039A69002A32D1DA619F614C
:10349000DE602368C3F81021D3F81011236801916E
:1034A0000199C3F84421D3F8442123680092009A7B
:1034B000C3F83465C3F83875236801221A6025798A
:1034C00005EBC50309EB8303EE005B68002B43D0DB
:1034D00023684FF40472C3F80423002003B0BDE84E
:1034E000F08336494FF4C070FDF766FC002EAAD178
:1034F0002CE0DA69002A49D11E61DF612368C3F834
:103500001021D3F81011236801910199C3F84421C7
:10351000D3F8442123680092009AC3F83465C3F8B5
:1035200038752268D2F8003243F02003C2F8003226
:10353000C5E7102003B0BDE8F08320494FF4C17007
:10354000FDF73AFC2379002B89D083E71B4940F231
:103550008110FDF731FC76E7236801E0F1B920BB6B
:10356000D3F81021D3F84411D3F82401002AF5D060
:10357000354400284FF0000309EB850918BF0320EC
:10358000994218BF0F20C9F81830A7E7A1B12368E6
:103590004FF40472C3F8042311209FE7354409EB6C
:1035A00085090F20C9F8182098E7354409EB8509EB
:1035B0000320C9F8181091E711208FE78040000020
:1035C000400200200368D3F81001003818BF012022
:1035D000704700BF0379094A03EBC30302EB83037F
:1035E000DB6933B10268D2F8003223F02003C2F85D
:1035F0000032036801225A60704700BF4002002079
:1036000020BF40BF20BF704770B584B0FEF78EFA70
:1036100000283CD10020FEF7E5FA00284BD100201D
:10362000FEF7A0FAFDF7A8F800283FD10320FCF729
:103630005FFE234A23492448FDF734FE88BB234814
:1036400000F078F94FF0FF33024600931F491E48FF
:103650000023FDF7C9FEF8B91B4D4FF47A760096AA
:10366000002301220DF10F012846FDF7EBFF044670
:103670000028F4D1009003460DF10F0101222846E5
:10368000FDF7B2FE21462846FEF706F9E7E7104AA5
:103690006A21FCF78FFEBDE70D4A7F21FCF78AFE09
:1036A000DAE70B4A7621FCF785FEC8E7084A702165
:1036B000FCF780FEBAE7064A6C21FCF77BFEAEE71A
:1036C000F4400000C8400000104100000800002045
:1036D000B840000010B44FF080414FF080520020FD
:1036E000C1F80C015E4BC1F81001C1F83805D2F8E1
:1036F0000414C3F82015D2F80814C3F82415D2F81E
:103700000C14C3F82815D2F81014C3F82C15D2F8ED
:103710001414C3F83015D2F81814C3F83415D2F8BD
:103720001C14C3F84015D2F82014C3F84415D2F87D
:103730002414C3F84815D2F82814C3F84C15D2F84D
:103740002C14C3F85015D2F83014C3F85415D2F81D
:103750003414C3F86015D2F83814C3F86415D2F8DD
:103760003C04C3F86805D2F840043E49C3F86C0530
:103770000968D2F84424C3F87025082924D04FF0F2
:103780008043D3F80024D20744BF6FF00102C3F88E
:103790000024354AD2F8883043F47003C2F88830E8
:1037A000BFF34F8FBFF36F8F4FF01023D3F800227A
:1037B000002A23DBD3F80432002B1FDB2B4B2C4ACF
:1037C0001A605DF8044B70472A4B1B68002BD6D15A
:1037D00029482A4A2A4C04602A492B4BFB20C2F86C
:1037E00018050A681B68294822F00F0203F00F032E
:1037F00013434FF400720B600260C0E7244A0123B8
:10380000C2F80435D2F80034002BFBD04FF010235F
:1038100012211F4AC3F80012D2F80034002BFBD04B
:103820004FF0102312211A4AC3F80412D2F80034C0
:10383000002BFBD000231649C2F80435D1F8003420
:10384000002BFBD0BFF34F8F0749124BCA6802F41D
:10385000E0621343CB60BFF34F8F00BFFDE700BFB3
:1038600000C000403001001000ED00E01C0000200E
:103870000090D003340100108C56004000F000404E
:1038800048810300E40E00405802001040960240B8
:1038900000E001400400FA0508B5074B044613B1E7
:1038A0000021AFF30080054B1868836A03B1984785
:1038B000204600F047F800BF00000000384100003B
:1038C00070B50D4D0D4C641BA4100026A64209D105
:1038D0000B4D0C4C00F0B4F9641BA4100026A6425A
:1038E00005D170BD55F8043B98470136EEE755F811
:1038F000043B98470136F2E780000020800000205A
:1039000080000020840000200A44914200F1FF332F
:1039100000D1704710B511F8014B03F8014F9142E7
:10392000F9D110BD02440346934200D1704703F819
:10393000011BF9E7034613F8012B002AFBD1181AE3
:1039400001387047FEE700BF53B94AB9002908BFE4
:1039500000281CBF4FF0FF314FF0FF3000F06EB970
:10396000ADF1080C6DE904CE00F006F8DDF804E0D6
:10397000DDE9022304B070472DE9F047089D0446B5
:103980008C46002B40F083808A42174647D9B2FA12
:1039900082F242B1C2F1200024FA00F09140974037
:1039A00040EA010C94404FEA1748230CBCFBF8F6A0
:1039B0001FFA87FE08FB16C143EA014306FB0EF11E
:1039C000994209D9FB1806F1FF3080F0198199421C
:1039D00040F21681023E3B445B1AA4B2B3FBF8F0FE
:1039E00008FB103344EA034400FB0EFEA64509D948
:1039F0003C1900F1FF3380F00581A64540F20281B9
:103A000002383C4440EA0640A4EB0E0400261DB1F7
:103A1000D4400023C5E900433146BDE8F08702B930
:103A2000FFDEB2FA82F2002A50D1CB1B4FEA174ECA
:103A30001FFA87F80126B3FBFEFC210C0EFB1C339A
:103A400041EA034108FB0CF38B4207D979180CF1CA
:103A5000FF3002D28B4200F2E9808446C91AA3B239
:103A6000B1FBFEF00EFB101143EA014408FB00F825
:103A7000A04507D93C1900F1FF3302D2A04500F25E
:103A8000D9801846A4EB080440EA0C40BFE78B42FB
:103A900009D9002D00F0B1800026C5E900013046AB
:103AA0003146BDE8F087B3FA83F6002E4AD18B4247
:103AB00002D3824200F2B880841A61EB0301012034
:103AC0008C46002DA8D0C5E9004CA5E7C2F1200323
:103AD00020FA03F6974001FA02F04FEA174ED94058
:103AE0003043030CB1FBFEF61FFA87F80EFB1611EC
:103AF00043EA014306FB08F1994204FA02F409D9AA
:103B0000FB1806F1FF3C80F08D80994240F28A80DC
:103B1000023E3B445B1A81B2B3FBFEF00EFB103356
:103B200041EA034100FB08F38B4207D9791800F101
:103B3000FF3C73D28B4271D902383944CB1A40EA28
:103B4000064678E7C6F1200C03FA06F422FA0CF3D5
:103B50001C4320FA0CF701FA06F34FEA144E21FA3F
:103B60000CF11F433B0CB1FBFEF91FFA84F80EFB6E
:103B7000191143EA014109FB08FA8A4502FA06F2E3
:103B800000FA06F308D9611809F1FF3048D28A45D6
:103B900046D9A9F102092144A1EB0A01BFB2B1FB48
:103BA000FEF00EFB101147EA014700FB08F8B8458C
:103BB00007D9E71900F1FF312ED2B8452CD90238C8
:103BC000274440EA0940A7EB0807A0FB02894F45BC
:103BD000C64649461AD317D05DB1B3EB0E0267EB68
:103BE000010707FA0CFCF2404CEA0202F740C5E973
:103BF000002700263146BDE8F0872E4628460BE711
:103C00000646E9E61846FDE64345E5D2B8EB020E66
:103C100069EB04010138DFE70846D2E760468DE72B
:103C20008146B9E7664675E730464AE7ACF1020CD3
:103C3000394413E702383C4424E700BF704700BF13
:103C4000F8B500BFF8BC08BC9E467047F8B500BF89
:103C5000F8BC08BC9E4670472E2E2F2E2E2F2E2EDF
:103C60002F2E2E2F2E2E2F2E2E2F636F6D706F6EF8
:103C7000656E74732F6C69627261726965732F74FB
:103C8000696D65722F6170705F74696D6572322E37
:103C9000630000000100060000000000C4000020D6
:103CA000E50300002E2E2F2E2E2F2E2E2F2E2E2F00
:103CB0002E2E2F2E2E2F636F6D706F6E656E7473A8
:103CC0002F6C69627261726965732F7574696C2FEC
:103CD0006170705F7574696C5F706C6174666F722F
:103CE0006D2E63002E2E2F2E2E2F2E2E2F2E2E2FAA
:103CF0002E2E2F2E2E2F636F6D706F6E656E747368
:103D00002F6C69627261726965732F74696D657277
:103D10002F6472765F7274632E6300002E2E2F2E36
:103D20002E2F2E2E2F2E2E2F2E2E2F2E2E2F6D6F2E
:103D300064756C65732F6E7266782F68616C2F6E78
:103D400072665F7274632E68000000002E2E2F2EA4
:103D50002E2F2E2E2F2E2E2F2E2E2F2E2E2F696E03
:103D6000746567726174696F6E2F6E7266782F6EFC
:103D70007266785F676C75652E6800000000000051
:103D80000338FDD8704700002E2E2F2E2E2F2E2EFA
:103D90002F2E2E2F2E2E2F2E2E2F636F6D706F6EC7
:103DA000656E74732F6C69627261726965732F71CD
:103DB000756575652F6E72665F71756575652E63C5
:103DC000000000002E2E2F2E2E2F2E2E2F2E2E2FC7
:103DD0002E2E2F2E2E2F636F6D706F6E656E747387
:103DE0002F6C69627261726965732F7365726961A4
:103DF0006C2F6E72665F73657269616C2E63000072
:103E00002E2E2F2E2E2F2E2E2F2E2E2F2E2E2F2ECD
:103E10002E2F696E746567726174696F6E2F6E7292
:103E200066782F6C65676163792F6E72665F647266
:103E3000765F756172742E68000000002E2E2F2EA2
:103E40002E2F2E2E2F2E2E2F2E2E2F2E2E2F636F17
:103E50006D706F6E656E74732F6C696272617269DA
:103E600065732F6D757465782F6E72665F6D7478EB
:103E70002E6800002E2E2F2E2E2F2E2E2F2E2E2F80
:103E80002E2E2F2E2E2F636F6D706F6E656E7473D6
:103E90002F6C69627261726965732F736F72746CD3
:103EA0006973742F6E72665F736F72746C6973746A
:103EB0002E6300002E2E2F2E2E2F2E2E2F2E2E2F45
:103EC0002E2E2F2E2E2F696E746567726174696FA6
:103ED0006E2F6E7266782F6C65676163792F6E72D4
:103EE000665F6472765F636C6F636B2E63000000C5
:103EF000000000002E2E2F2E2E2F2E2E2F2E2E2F96
:103F00002E2E2F2E2E2F696E746567726174696F65
:103F10006E2F6E7266782F6C65676163792F6E7293
:103F2000665F6472765F756172742E6300000000D4
:103F30002E2E2F2E2E2F2E2E2F2E2E2F2E2E2F2E9C
:103F40002E2F6D6F64756C65732F6E7266782F649B
:103F50007269766572732F7372632F6E7266785F03
:103F6000636C6F636B2E63002E2E2F2E2E2F2E2E42
:103F70002F2E2E2F2E2E2F2E2E2F6D6F64756C65EB
:103F8000732F6E7266782F647269766572732F7301
:103F900072632F6E7266785F6770696F74652E63E7
:103FA000000000002E2E2F2E2E2F2E2E2F2E2E2FE5
:103FB0002E2E2F2E2E2F6D6F64756C65732F6E72E3
:103FC00066782F68616C2F6E72665F6770696F2EFE
:103FD000680000002E2E2F2E2E2F2E2E2F2E2E2F4D
:103FE0002E2E2F2E2E2F6D6F64756C65732F6E72B3
:103FF00066782F647269766572732F7372632F6EA1
:104000007266785F706F7765722E63002E2E2F2E8A
:104010002E2F2E2E2F2E2E2F2E2E2F2E2E2F6D6F3B
:1040200064756C65732F6E7266782F64726976653D
:1040300072732F7372632F7072732F6E7266785F54
:104040007072732E630000002E2E2F2E2E2F2E2E18
:104050002F2E2E2F2E2E2F2E2E2F6D6F64756C650A
:10406000732F6E7266782F647269766572732F7320
:1040700072632F6E7266785F756172742E630000D2
:104080002E2E2F2E2E2F2E2E2F2E2E2F2E2E2F2E4B
:104090002E2F6D6F64756C65732F6E7266782F644A
:1040A0007269766572732F7372632F6E7266785FB2
:1040B00075617274652E63002E2E2F2E2E2F2E2EDC
:1040C0002F6D61696E2E630006000000080000007D
:1040D00007000000050000000000000001000000D3
:1040E00000E0D70106000000680200206402002002
:1040F000010100000100000008410000E84000004C
:104100000000000001360000544100004041000062
:1041100000000000002000400000000000200040DF
:1041200000000000CC0200203441000030410000BB
:10413000E00200200003002020000020000000001A
:10414000C00200209C0200202000000001000000AE
:1041500001000000900200206C02002020000000FE
:08416000010000000100000055
:08416800D8C0FF7F0100000038
:10417000001001401100040048656C6C6F206E72E5
:10418000665F73657269616C210A0D000090D0034F
:10419000000000000000000000000000000000001F
:1041A000000000000000000000000000000000000F
:1041B00000000000000000000000000000000000FF
:1041C00000000000000000000000000000000000EF
:1041D00000000000000000000000000000000000DF
:1041E00000000000000000000000000000000000CF
:0841F00025020000010200009D
:04000003000002B542
:00000001FF
